:100000000C9462020C9481020C9481020C94810283
:100010000C9481020C9481020C9481020C94810254
:100020000C9481020C9481020C9438210C940E22C1
:100030000C94901C0C9481020C9481020C9481020B
:100040000C9481020C9481020C943F0B0C9481025D
:100050000C9481020C94E91C0C9481020C94810292
:100060000C9481020C9481020C9481020C94810204
:100070000C9481020C9481020C9481020C948102F4
:100080000C9481020C9481020C9481020C948102E4
:100090000C9481020C94810298129812CA12CA120E
:1000A0002D142D142D142D141713AC13BD13BD13C3
:1000B0001D142D142D142614C114C114D314D314DB
:1000C000CA14D314D314D314C114C114CF14D31429
:1000D000D314CF147F22A6229E23A6229E23F2228F
:1000E00015239E236C237B2307634236B79BD8A737
:1000F0001A39685618AEBAAB558C1D3CB7CC57634D
:10010000BD6DEDFD753EF6177231BF000000803FFA
:1001100008000000BE922449123EABAAAA2ABECD16
:10012000CCCC4C3E00000080BEABAAAAAA3E000088
:100130000000BF000000803F000000000008417880
:10014000D3BB4387D1133D190E3CC3BD4282AD2BB7
:100150003E68EC8276BED98FE1A93E4C80EFFFBEAF
:1001600001C4FF7F3F00000000000000000000000D
:10017000000000000000000000000000000000007F
:10018000000063000000000000002D002700260092
:100190002E00300064002A00000001000100010070
:1001A0000100580062000000000012000C0018005E
:1001B00013002F003200010000005F0060006100AA
:1001C00056005B005900000000000F000E000D00FB
:1001D000330034002800010000005C005D005E0078
:1001E00085005A0000000000000000000000000030
:1001F000000000000000000000002C0005001D00B1
:100200000151520001000000000020001E002900E2
:1002100021002200230024002500370019001B00C4
:1002200001003800010000000000140000002B0055
:100230001A000800150017001C0036000600010017
:100240000100510050000000000004001F003900B0
:100250001600070009000A000B0010001100000042
:10026000000000004F0000000000E000000000005F
:10027000000000000000000000000000000000007E
:10028000000000000000000000000000000000006E
:10029000000000000000000000000000000000005E
:1002A000000000000000E500000000000000000069
:1002B000000000000000000000000000000000003E
:1002C0000000000000000000E1000000000000004D
:1002D000000000000000000000000000000000001E
:1002E00000004400000000000000010001000100C7
:1002F00001000100010001000000010001000100F7
:100300000100450043000000000001000100010061
:10031000010001000100005C0000400041004200BB
:1003200069003C003A0000000000010001000100EB
:10033000010001000100010000003D003E003F00FF
:1003400068003B000000000000000000000000000A
:10035000000000000000000000000100010001009A
:100360000100010001000000000001000100350053
:100370000100010001000100010001000100010075
:100380000100010001000000000001000000010068
:100390000100010001000100010001000100010055
:1003A0000100010001000000000001000100010047
:1003B0000100010001000100010001000100000036
:1003C000000000000100000000000100000000002B
:1003D000000000000000000000000000000000001D
:1003E000000000000000000000000000000000000D
:1003F00000000000000000000000000000000000FD
:1004000000000000000001000000000000000000EB
:1004100000000000000000000000000000000000DC
:100420000000000000000000010012033200310053
:100430003000200050006C007500730000000C03B9
:1004400041006D007000650078000000040309049D
:1004500009022200010100A0FA09040000010301C1
:100460000100092111010001224000070581030854
:10047000000A120110010000000810022B00010008
:100480000102000105010906A101050719E029E79C
:1004900015002501950875018102950175088101F6
:1004A0000507190029FF150026FF0095067508812C
:1004B0000005081901290595057501910295017539
:1004C000039101C011241FBECFEFD0E2DEBFCDBF2C
:1004D00013E0A0E0B1E0EEE5F0E500E00BBF02C004
:1004E00007900D92A43CB107D9F725E0A4ECB3E046
:1004F00001C01D92A438B207E1F70E94841E0C943B
:100500002D280C94000081E0089581E008950C945A
:10051000850208950C9489021F93CF93DF9300D036
:1005200000D01F92CDB7DEB749835A836B833091D9
:10053000270489819A81311114C0662359F022233E
:1005400049F00E94FA19182F682F89819A810E9418
:10055000A31903C00E94CE19182F69817A81812FB7
:1005600004C00E94FA1969817A810F900F900F9050
:100570000F900F90DF91CF911F910C948103FC019C
:10058000262F408151816281738184810C948C0279
:10059000CF93DF93EC0160E00E94BF02BE01DF91C8
:1005A000CF910C948A020E94481D0E94341B811135
:1005B00002C00E94E41B0E942C070C948A058091C3
:1005C000C803811117C08091C6039091C70300979B
:1005D00039F40E94C21C9093C7038093C6030AC0DB
:1005E0000E94DA1C8D32914028F00E94450981E07A
:1005F0008093C8030E94060C0C9486050895CF933F
:10060000DF930E94AF140E94CB0B0E94C21CEC012E
:1006100040E063E070E080E091E00E94DC080E942E
:10062000FE02CE010E94DA1C8A3F910538F48FE960
:100630009FE00197F1F700C00000F3CF0E9405078B
:10064000DF91CF910C940F1D0F931F93CF93DF93E6
:10065000EC0161E00E94BF028C01BE010E94870292
:100660008823A9F1BE01C8010E94B806882379F148
:10067000BE01C8010E946A0C882349F1BE01C8016D
:100680000E94330E882319F1BE01C8010E94850E15
:100690008823E9F0BE01C8010E94DD0F8823B9F06C
:1006A0008A81882369F001158CE5180731F00F3D28
:1006B0001C4531F40E94E41B0AC00E94FF0207C0DF
:1006C000CE01DF91CF911F910F910C94830280E0B6
:1006D000DF91CF911F910F91089508950C946D03B0
:1006E00081E008950C947003CF93C82F0E946E038D
:1006F0008C2F0E947203CF91089580E090E00895BE
:100700000895E72FF0E09BE0899FE00DF11D112493
:1007100084E0EE0FFF1F8A95E1F7E60FF11DEE0F63
:10072000FF1FE659FE4F859194910895880F991FF8
:10073000FC01E65DFB4F859194910895CF93DF9383
:100740000E9481030E949A04EC01811521E5920721
:10075000A0F5811540E5940708F086C0C11580E238
:10076000D807F0F4C11521E0D20708F0DFC0C03E81
:10077000D10588F4C03CD10508F062C0C130D10574
:1007800009F4D4C008F4D0C0CE010497813A910591
:1007900008F4CCC0C9C0C83ED10508F4C7C0C4C065
:1007A000C11540E4D40708F05CC0C11580E3D80748
:1007B00008F04DC0CE019F7046C0811525E5920717
:1007C000A0F4811544E5940708F095C0C11583E5B0
:1007D000D80708F07AC0C11522E5D20708F05FC03B
:1007E000DC2FCC27C16FD06AA1C0811549E59407E1
:1007F000A0F4C11588E5D80708F082C0C11526E528
:10080000D20708F091C08C2F0E942E058F71C82F3F
:10081000D0E0DC2FCC27D06289C081154AE594074F
:1008200008F473C090568115904208F07DC08D2F5A
:100830008F710E942E05DD27D0628F71D82B76C074
:10084000CE01805C91090E949603EC016FC0CE013D
:100850009927D3FF03C0EC01D86C68C0EC01D06CC1
:1008600065C0DF70D06A62C074E0969587957A950E
:10087000E1F783709C2F937021E030E002C0220FDB
:10088000331F9A95E2F73C68382BCF70C695C69512
:1008900040E2C49FE0011124C22BD32B47C0CE01FC
:1008A0008370992721E030E002C0220F331F8A9520
:1008B000E2F78C2F8695869540E2849FC001112433
:1008C000E901C82BD92BDC6831C0CE018370992790
:1008D00021E030E002C0220F331F8A95E2F78C2F0F
:1008E0008695869540E2849FC0011124E901C82BBA
:1008F000D92BDA681BC0D82FCC27C46FD06A16C09A
:10090000DC2FCC27C06FD06A11C08F700E942E05DB
:1009100094E0D695C7959A95E1F7CF70D0E0DC2F9B
:10092000CC27D069C82B02C0C0E0D0E0CE01DF9157
:10093000CF9108958238910569F1B0F48133910522
:1009400009F46DC048F48932910509F463C08A3214
:10095000910509F469C008958533910509F455C0DE
:1009600089339105B9F00895833E910569F138F412
:10097000803E9105B1F0823E910509F10895863ED1
:100980009105A9F1873E9105B9F1843E910509F0E1
:1009900064C023C02091750520FD4FC021FD4DC0CE
:1009A00008958091750580FD44C08091760580FF93
:1009B00044C08091750584FD42C083EE4DC0809196
:1009C000750582FF38C0F5CF8091750582FD33C073
:1009D0008091760580FD31C0ECCF8091760581FF56
:1009E00032C08091750584FD2AC087EE35C08091A4
:1009F000750583FF26C0F5CF8091750583FD21C065
:100A00008091760581FD1FC0ECCF8091750585FD35
:100A10001CC01DC08091750585FD19C016C0809150
:100A2000750586FD16C017C08091750586FD13C03B
:100A300010C089E311C082EE0FC080EE0DC080E0CF
:100A40000BC086EE09C084EE07C089E205C085E3CD
:100A500003C08AE201C081E390E00895909175059A
:100A600092FF0DC0282F2871283019F4877F8460E9
:100A700006C0282F2471243011F48B7F886093FFE7
:100A80000DC0282F2871283119F4877E846106C093
:100A9000282F2471243111F48B7E886120917605F2
:100AA00020FF0DC0382F3871383019F4877F8160EE
:100AB00006C0382F3171313011F48E7F886021FFEC
:100AC0000DC0282F2871283119F4877E816106C056
:100AD000282F2171213111F48E7E886194FD877E4B
:100AE0000895E82FF0E0EE0FFF1FEB5FFA4F8081D3
:100AF00091810895089580EA8A95F1F7089500C0DC
:100B000008950C947B0508950C9483050C9484053A
:100B10000C9483050C948805F894E82FE295EF7007
:100B2000F0E031A1282F2F7081E090E001C0880F04
:100B30002A95EAF7982F9095932391A392A1892B58
:100B400082A378940895CF93DF93C9EBD3E0899182
:100B50000E948C0583E0C43CD807C9F7C9EAD3E0FA
:100B600089910E948C0583E0C93BD807C9F7EFEE55
:100B7000F4E0A5E0B5E085E095E0119211921D92B8
:100B80001D928E179F07C9F78BE00E945E06DF91CA
:100B9000CF910C94D3027F928F929F92AF92BF928B
:100BA000CF92DF92EF92FF920F931F93CF93DF9339
:100BB0000FEE14E089EBE82E83E0F82EC0E0D0E0E1
:100BC000712CAA24A394B12C4701F7018081F894D9
:100BD000E82FE295EF70F0E021A18F70A50102C02F
:100BE000440F551F8A95E2F7CA01922F982B91A3C3
:100BF00092A18095892382A378940E947F05E9EAD7
:100C0000F3E020E030E0C12CD12C4191A42FA2953B
:100C1000AF70B0E090968C9190E04F7002C09595C7
:100C200087954A95E2F780FD08C0C501022E02C0F3
:100C3000880F991F0A94E2F702C080E090E0C82A6A
:100C4000D92A2F5F3F4F20313105F9F65FEFE51AC2
:100C5000F50AF40180810E948C05CA30D10511F09B
:100C60000E948105F80180819181C816D90621F082
:100C7000D182C08281E001C080E0782A21960E5F97
:100C80001F4FCB30D10509F09FCF272D4BE065E0FA
:100C900075E08FEE94E00E945F060E94DF02872DD0
:100CA000DF91CF911F910F91FF90EF90DF90CF9048
:100CB000BF90AF909F908F907F9008950895FF927E
:100CC0000F931F93CF93DF93F82E092F162FD72F53
:100CD000C42F222349F081E08093CB030E94C21CE1
:100CE0009093CA038093C9038091CB038823D9F0E2
:100CF0008091C9039091CA030E94DA1C069798F06C
:100D0000EF2DF02FA12FBD2F80E090E04C2F50E071
:100D10008417950734F4219131912D933D930196D9
:100D2000F7CF1092CB03DF91CF911F910F91FF90DE
:100D30000895682F70E065547109072E000C880B28
:100D4000990B0E947A2420E030E040E451E40E94B4
:100D5000D7239B01AC0160E070E080E090E40E944A
:100D6000972520E030E04CED53E40E942A250895B9
:100D7000FB018D312CE5920731F482818823A1F1AA
:100D80000E9457092FC08E312CE5920731F48281E1
:100D9000882351F10E94670925C08F312CE5920705
:100DA00041F48281882301F10E9401078111F2CF71
:100DB000E7CF8A322CE5920731F482818823A1F0B3
:100DC0000E94BE0B08C08B329C4571F4828188233F
:100DD00059F00E94C10B40E064E070E088E191E0CE
:100DE0000E94DC0880E0089581E008950E94990641
:100DF0000C9498080E9499060C9459070C940507C6
:100E0000089580916F058170089580913801811156
:100E100022C01092D7030E94310B1092D603109279
:100E2000D5031092D3031092D203EFE2F5E080E0F5
:100E300090E0A0E8BFEB1182108282839383A483A9
:100E4000B58317821682389625E0EF36F20799F7B8
:100E500081E08093380108958091CC03811128C0EE
:100E60000E94341B811102C00E94E41B0E94651B7A
:100E700080936F05EFE2F5E080E090E0A0E8BFEB43
:100E80001182108282839383A483B5831782168292
:100E9000389625E0EF36F20799F78091CC0381115F
:100EA00005C00E94270B81E08093CC030C940507BA
:100EB0000895CF92DF92EF92FF920F931F93CF93FB
:100EC000DF936B017C0120E030E0A9010E94D22376
:100ED00087FF04C0F7FAF094F7F8F0948091D503F7
:100EE000882309F458C08091CC03811102C00E946C
:100EF0002C070FE215E0C7E0D0E0F80122AD33ADDA
:100F000044AD55ADC701B6010E94D22381112BC05B
:100F100083E0CC0FDD1F8A95E1F7C15DDA4F1982BE
:100F2000188280E090E0A0E8BFEB8A839B83AC83CB
:100F3000BD831F821E82AC01BD01F5E0C736DF070D
:100F4000D1F088E0FE013896DE0101900D928A957D
:100F5000E1F7198618864A875B876C877D871F862D
:100F60001E862896EACF219708501109CF3F8FEFB0
:100F7000D80719F610C0C1E0C093D4038091D703FD
:100F800081508093D703811106C00E94310BC0931A
:100F900038011092D503DF91CF911F910F91FF90EF
:100FA000EF90DF90CF9008957F928F929F92AF92B3
:100FB000BF92CF92DF92EF92FF920F931F93CF9346
:100FC000DF934B015C016A0180916F0580FFA2C035
:100FD0008091CC03811102C00E942C0720E030E0F8
:100FE000A901C501B4010E94D22387FF04C0B7FA4A
:100FF000B094B7F8B0947090D703072D10E0E801D3
:10100000219743E0000F111F4A95E1F7E12CF12CE5
:10101000CF3FFFEFDF07D9F128E0E21AF108F8012E
:10102000EE0DFF1DE15DFA4F228133814481558130
:10103000C501B4010E94D223811127C08E0133E083
:10104000000F111F3A95E1F7015D1A4F8091D70308
:1010500090E00197C817D9070CF05CC0219688E092
:10106000F8013896D80101900D928A95E1F70E9417
:10107000C21CF8019187808782869386A486B586F4
:10108000D786C686085F1F4FE1CF2197C1CF81E089
:10109000870D893060F58093D70381E08093D40376
:1010A0008093D503C091D703D0E021970E94C21C42
:1010B000FE0123E0EE0FFF1F2A95E1F7E15DFA4FF5
:1010C0009183808382829382A482B582D782C682F2
:1010D0000E94C21C9093E2038093E1038091380147
:1010E0008823C1F00E94330B1092380113C088E0AE
:1010F0008093D7038FE295E028E0FC013896DC016D
:1011000001900D922A95E1F7089625E0873692071F
:1011100099F7C3CFDF91CF911F910F91FF90EF907F
:10112000DF90CF90BF90AF909F908F907F90089569
:101130004FEF5FEF0C94D407CF92DF92EF92FF92C4
:10114000E091D7038E17E8F4E150E81B88E0E8024D
:10115000F0011124E15DFA4FC280D380E480F58074
:1011600020E030E0A901C701B6010E94D223181681
:1011700044F4C701B601FF90EF90DF90CF900C943C
:10118000C40B60E070E0CB01FF90EF90DF90CF9058
:101190000895409171019C01A0E6BAEE0E94C82713
:1011A00050E4459F90011124032E000C440B550B75
:1011B0000E949D27C9010895EF92FF921F93CF933C
:1011C000DF9320916F0520FD07C0DF91CF911F9124
:1011D000FF90EF900C940507142F7B01EC01809198
:1011E000CC03811102C00E942C078091D50381118C
:1011F0000E94050781E08093D6031092CF03D0931D
:101200002E05C0932D05F0921C05E0921B0510934E
:1012100070051092D1031092D0036C817D818E8174
:101220009F810E944924CB010E94C908AC016881BA
:1012300079818A819B810E94D4070E94C21C90936D
:10124000CE038093CD0380912D0590912E05E091E2
:10125000D003F091D10323E0EE0FFF1F2A95E1F7B1
:10126000E80FF91F64817581868197810E94492466
:10127000CB010E94C9089093D3038093D203DF91DE
:10128000CF911F91FF90EF90089580916F0580FF9F
:1012900007C040E063E070E089E591E00E94DC086F
:1012A0000E94C21C9093CE038093CD030895809139
:1012B0006F05816080936F050E94691B0E94000783
:1012C00040E062E070E089E491E00C94DC0840E0EA
:1012D00062E070E089E391E00E94DC082FEF81EE8C
:1012E00094E0215080409040E1F700C000000E944F
:1012F000050780916F058E7F80936F050C94691BA5
:10130000AF92BF92CF92DF92EF92FF920F931F9313
:10131000CF93DF938091D503811105C0C091D6038F
:10132000CC2309F41EC10E94C21CEC018091D6039B
:10133000811102C010E0DDC08091CD039091CE03F9
:101340000E94DA1C2091D2033091D30382179307B5
:1013500088F38091CD039091CE030E94DA1C2091F6
:10136000D2033091D3037C01E21AF30AD093CE0367
:10137000C093CD03A090D003B090D103C5010196D6
:101380009093D1038093D0030E94C21C9093E203F8
:101390008093E10300911B0510911C058091D003FF
:1013A0009091D1038017910760F0C0917005CC2314
:1013B00029F01092D1031092D00303C00E940507B8
:1013C000D0C08091CF03C090D003D090D103C09102
:1013D0002D05D0912E05811136C0F50133E0EE0FB9
:1013E000FF1F3A95E1F7EC0FFD1FD60143E0AA0F6E
:1013F000BB1F4A95E1F7AC0FBD1F2D913D914D915B
:101400005C9160817181828193810E94D2238111DC
:101410001AC081E08093CF0382E090E00E94C90867
:10142000AC0160E070E0CB010E94D407B092D10320
:10143000A092D00382E090E00E94C9089093D30369
:101440008093D20355C01092CF03F60123E0EE0F34
:10145000FF1F2A95E1F7EC0FFD1F648175818681DE
:1014600097810E944924CB010E94C90801501109AB
:101470002091D0033091D1038E159F0530F0E816EE
:10148000F90600F101E010E020C020173107B8F79D
:10149000E81AF90A2F5F3F4F3093D1032093D0030E
:1014A00093E0220F331F9A95E1F7FE01E20FF31F3D
:1014B00064817581868197810E944924CB010E94B5
:1014C000C908D6CF8C010E191F0983E0220F331FE4
:1014D0008A95E1F7FE01E20FF31F6081718182813D
:1014E0009381A8010E94D4071093D3030093D203E1
:1014F00011E08091D503882361F18091E30381118C
:1015000003C08091E403811111E0CFE2D5E0E12C2A
:10151000F12C8091D70390E0E816F906D4F48E817F
:101520009F8101978E3F9F4F78F4888199810E9417
:10153000DA1C2E813F818217930730F06A817B810C
:101540008C819D810E9459078FEFE81AF80A28962E
:10155000E0CFC091D403CC2319F01092D40301C082
:10156000C12F8C2FDF91CF911F910F91FF90EF90A2
:10157000DF90CF90BF90AF900895CF92DF92EF921F
:10158000FF926B017C0120E030E0A9010E94D22390
:10159000811106C0809180008F7C809380003CC0C8
:1015A00080918000806280938000C092DC03D092A2
:1015B000DD03E092DE03F092DF0320E030E040E064
:1015C00051E4C701B6010E942A259B01AC0160E0ED
:1015D00074E284E79BE40E94D7236B017C010E94A4
:1015E000492470938700609386006091720170E0D7
:1015F00080E090E00E947A24A70196010E942A25AB
:1016000020E030E048EC52E40E94D7230E944924B5
:1016100070938B0060938A00FF90EF90DF90CF90E3
:101620000895EFE6F0E0808184608083E0E8F0E0F8
:101630008081806280830895EFE6F0E080818B7F77
:101640008083E0E8F0E080818F7C808308950E94B1
:101650001C0B269A82E0809380008AE180938100AF
:1016600008950C941C0B0E94110B8091D5038823C4
:1016700029F080E00E949C080C94BD0A08951F92F6
:101680000F920FB60F9211240BB60F92CF92DF92EA
:10169000EF92FF922F933F934F935F936F937F93BC
:1016A0008F939F93AF93BF93EF93FF938091D80352
:1016B0009091D903A091DA03B091DB030196A11DAB
:1016C000B11D8093D8039093D903A093DA03B0930C
:1016D000DB036091D8037091D9038091DA03909174
:1016E000DB030E9478246B017C0120E030E040E8BD
:1016F0005CE36091DC037091DD038091DE039091E7
:10170000DF030E942A259B01AC01C701B6010E949C
:10171000D22387FD1CC01092D8031092D9031092D7
:10172000DA031092DB030E9480099091D503911196
:1017300007C09091D603911103C00E941C0B07C0F3
:10174000882329F080E00E949C080E94BD0AFF9136
:10175000EF91BF91AF919F918F917F916F915F9129
:101760004F913F912F91FF90EF90DF90CF900F908E
:101770000BBE0F900FBE0F901F9018951092E003B4
:1017800008951092E00308952091E003211102C012
:101790001092E40308958091FD0381110C94FE06DC
:1017A000089521E08F3F910508F020E0822F0895F1
:1017B0000C94D10B0E94CB0B1092FD0340E068E02B
:1017C00070E083EF91E00C94DC081092FC0340E0A1
:1017D00068E070E083E791E00C94DC080E94CB0B9A
:1017E0002091150330E02F5F3F4F23703327209364
:1017F000150348E2429FC001439F900D112440E031
:1018000065E070E08D589D4F0C94DC08CF9380917B
:10181000F903882309F442C08091E5039091E6031F
:10182000009781F40E94C21C9093E6038093E50325
:101830002091E70330E02115310571F48091E80330
:1018400090E00BC00E94DA1C209113033091140326
:101850002817390738F322C0C9010197F901E75168
:10186000FC4FC0812091FD03222331F0FC01E751A0
:10187000FC4F80810E94FA068091FD03882319F0B5
:101880008C2F0E94F6068091E70390E0019660910C
:10189000E80370E00E9489278093E703CF910895C1
:1018A000089581E08093FD0340E068E070E083E309
:1018B00092E00E94DC080C94500C089581E0809323
:1018C000FC0340E068E070E083EB91E00E94DC08FC
:1018D0000C945D0CEF92FF921F93CF93DF93CDB7E3
:1018E000DEB7A3970FB6F894DEBF0FBECDBF7C0165
:1018F00086E2E8168CE5F80641F4FB018281882334
:1019000009F450C00E94510CAAC0F7E2EF16FCE5A2
:10191000FF0641F4FB018281882309F443C00E9441
:10192000DA0B9DC0F8E2EF16FCE5FF0649F4FB0177
:1019300082818823B9F18091FD038111F0CFE2CF3C
:10194000FCE2EF16FCE5FF0639F4FB0182818823F7
:1019500049F10E945E0C83C0FDE2EF16FCE5FF0634
:1019600039F4FB0182818823E9F00E94E50B77C0FE
:10197000FEE2EF16FCE5FF0649F4FB0182818823B5
:1019800089F08091FC038111F0CFE3CFF9E2EF16EB
:10199000FCE5FF0639F4FB018281882319F00E94DF
:1019A000EE0B5DC09091FD03911105C08091FC0389
:1019B000882309F4D8C0FB014281442309F451C0B3
:1019C000F0EEEF16F10461F40E94CB0B81E08093FE
:1019D000FB031092FA031092F9031092E8033FC040
:1019E00082EEE816F10471F40E94CB0B8091FB03A8
:1019F000882319F081E08093FA031092FB03109280
:101A0000F9032DC0E3EEEE16F10491F48091FA0390
:101A1000882339F10E94CB0B1092FB0381E0809365
:101A2000F9031092E7031092E6031092E50317C042
:101A3000F2E5EF16F10431F4809113039091140351
:101A40000A9709C081E5E816F10459F4809113035F
:101A5000909114030A96909314038093130380E0EB
:101A600083C08091150381110AC0FB011081809110
:101A70001803180F135080911603180F4AC08130B5
:101A8000A1F4FB01108180911803180F105E2091C2
:101A90001603120F81812BE030E0281B3109822FC1
:101AA000880F880F280F120F3DC0823099F4FB0178
:101AB000108180911803180F105E80911603180F83
:101AC00081812BE030E0281B3109F7E02F9F100DBA
:101AD000112428C0833021F583E2E6E8F3E0DE013B
:101AE000119601900D928A95E1F7FB01808121E02A
:101AF00030E02C0F3D1F280F311DE0911603F091AF
:101B00001703E20FF31F1091180313508081180F71
:101B1000FB0181812BE030E0281B3109FCE0D6CFAE
:101B2000109118034423A1F0992319F0812F0E94EA
:101B3000F6068091FB03882381F08091E803E82F6B
:101B4000F0E0E751FC4F10838F5F8093E80305C0FE
:101B5000992319F0812F0E94FA06C7010E94D80B21
:101B600091E0892701C081E0A3960FB6F894DEBF0B
:101B70000FBECDBFDF91CF911F91FF90EF900895E1
:101B80000F931F93CF93DF93C42FD22FFC01828139
:101B90008823C9F0409300040E94C21C9093FF0365
:101BA0008093FE0380E28C0F883008F057C0C77026
:101BB00081E001C0880FCA95EAF7DF91CF911F91AC
:101BC0000F910C94571280910004481330C08091FB
:101BD000FE039091FF030E94DA1C883C910538F5C2
:101BE00010E21D0FCD17B9F080E28C0F883040F461
:101BF000C77081E001C0880FCA95EAF70E945E12A3
:101C0000183028F581E09D2F977001C0880F9A95B4
:101C1000EAF70E945712802F0E944E121830F0F4FB
:101C2000D77081E001C0880FDA95EAF70AC080E238
:101C30008C0F883098F4C77081E001C0880FCA9576
:101C4000EAF7DF91CF911F910F910C945E12802FD4
:101C5000DF91CF911F910F910C944E12DF91CF9194
:101C60001F910F9108950F939C01CB01243F4CE5E8
:101C7000340731F188F4293DFCE53F07D9F02A3DCE
:101C80004CE5340779F1283D3C45A9F506E221EE03
:101C900041EE68ED7CE52BC0263FFCE53F07E1F017
:101CA000A8F0273F3C4539F507E225EE46EE67EF01
:101CB0007CE51DC007E225EE45EE69ED7CE517C029
:101CC00006E221EE40EE64EF7CE511C007E225EE6E
:101CD00044EE65EF7CE50BC006E221EE42EE66EFD6
:101CE0007CE505C008E221E045EE6AED7CE50E9456
:101CF000C00D80E008C0FC018281882319F0109299
:101D0000000401C081E00F910895CF93DF93EC01AF
:101D1000FB018281882309F44CC1C230FCE5DF0756
:101D200008F448C1C6319CE5D90738F09E012B5F05
:101D30003C452930310508F03DC10E94471B909376
:101D4000760580937505C031ECE5DE0709F4CCC05B
:101D500008F042C0C8308CE5D80709F4A1C0F0F4FF
:101D6000C430ECE5DE0709F487C068F4C2308CE5C6
:101D7000D80709F47DC0C330DC4509F010C180915B
:101D8000750582607CC0C630ECE5DE0709F480C0D2
:101D900008F082C080917505886071C0CC308CE5F8
:101DA000D80709F48DC068F4CA30ECE5DE0709F401
:101DB0007BC008F081C00E94AF14809175058068D7
:101DC0005EC0CE308CE5D80709F47EC008F088C02C
:101DD000809175058B7F53C0CC3FECE5DE0709F49D
:101DE00051C020F5C3318CE5D80709F485C078F4DB
:101DF000C131ECE5DE0709F47BC0C231DC4509F0F6
:101E0000CEC00E94AF14809175058F7738C0C53160
:101E10008CE5D80709F480C008F4B2C0CB3FDC459C
:101E200009F0BDC08091760581602FC0C115FDE528
:101E3000DF0709F469C078F4CE3F9CE5D90709F4BF
:101E40004BC008F445C08091760582608160809324
:101E5000760540E08BC0C230FDE5DF0709F49CC089
:101E600008F476C0C330DD4509F099C080E095C024
:101E700080917505816003C08091750584608093B1
:101E800075058DC08091760582608093760587C048
:101E9000809175058061F3CF809175058062EFCFE9
:101EA000809175058064EBCF8091750588608460B2
:101EB0008093750540E040C0809175058E7FDFCF2F
:101EC000809175058D7FDBCF80917505877FD7CF9A
:101ED000809176058E7FD9CF809176058D7FD5CF85
:101EE000809175058F7ECBCF809175058F7DC7CF93
:101EF000809175058F7BC3CF80917505877F8B7F20
:101F00008093750540E01FC0809176058D7F8E7FA0
:101F10008093760540E02FC08091750582FB2227D3
:101F200020F991E040E0922790FB82F990FB83F941
:101F300080937505992339F064E070E089E493E0BB
:101F40000E94DC082CC062E070E089E693E0F8CFE4
:101F500080917605982F909591708E7F892B90FBBC
:101F600081F98093760540E0992329F064E070E0E0
:101F700089E193E0E5CF62E070E089E393E0E0CFB0
:101F80000E94AF148091750587FB222720F991E00C
:101F9000922790FB87F973CF81E00E94E61B809126
:101FA0007505909176050E94581B0E94AF1480E041
:101FB00001C081E0DF91CF910895CF93DF93863107
:101FC0009C4541F5EB010E947B1A982F8A81209154
:101FD000790330917A03882379F09A7A81E009F4C1
:101FE00080E080930104911102C069E201C065E3C1
:101FF000C9010E942D1C0AC080910104811102C0F8
:1020000069E201C065E3C9010E942F1C0E94C91A40
:1020100080E001C081E0DF91CF91089590930704A3
:10202000809306040895E0910604F0910704309728
:1020300021F00190F081E02D099480E00895E09175
:102040000604F0910704309721F00280F381E02D1F
:102050000994089520910404309105042817390744
:1020600071F09093050480930404E0910604F091CC
:102070000704309721F00680F781E02D0994089538
:1020800020910204309103042817390771F09093CE
:10209000030480930204E0910604F0910704309752
:1020A00021F00084F185E02D09940895CF93DF930A
:1020B00090E1899FD001112420E030E080E090E0A1
:1020C000C1E0D0E0F901EA0FFB1FEE0FFF1FE65958
:1020D000FE4FE491EE2371F0AE01022E02C0440FD8
:1020E000551F0A94E2F7FA01E623F723EF2B11F0CC
:1020F000842B952B2F5F3F4F2031310519F7DF914E
:10210000CF9108950E94CE1C609323047093240401
:10211000809325049093260460931F0470932004F9
:102120008093210490932204089585B7806885BF29
:1021300085B7806885BF089581E008950C949C1050
:1021400008950C94A0100C94A0100C94A3100C945F
:10215000A0100C94A7100C94A0100E9495108CE273
:102160009BE10E94411D0E94AB100C94A9100E949B
:10217000B91C0E94A3050E945C1D0C94A5105F92DF
:102180006F927F928F929F92AF92BF92CF92DF9287
:10219000EF92FF920F931F93CF93DF93CDB7DEB7EC
:1021A0002A970FB6F894DEBF0FBECDBF0E94A110D4
:1021B0000E94A0100E94CB0581110E94821039E07C
:1021C000832E34E0932E00E010E0502E802F0E94EA
:1021D00071056C01F401A190B1904F01A826B926B8
:1021E000A114B104B1F40F5F1F4F0B30110569F753
:1021F0008FEF89838A831B820E94C21C8160782FA3
:102200009D838C8349815A816B818D810E949E11AF
:1022100041C0BC01802F0E9456103C0101978621CD
:102220009721892BC9F0F12C5F1005C0F394FBE0D6
:10223000FF12FACF11C08F2D0E947105BC018F2DA6
:102240000E945610862197219C012150310982233A
:102250009323892B59F3C7CF8091E30481FD0E941A
:102260007A05712CEE24E394F12CC5018E219F2177
:10227000892B09F446C00E949E1081112CC0000FCA
:10228000111FF801E75FFB4F80819181E826F92655
:10229000F182E0820E941310909108048917C1F125
:1022A0000E941310809308042A960FB6F894DEBF9C
:1022B0000FBECDBFDF91CF911F910F91FF90EF9097
:1022C000DF90CF90BF90AF909F908F907F906F9056
:1022D0005F900C9474037E825F82CE20DF2081E0C9
:1022E000CD2809F480E088870E94C21C8160782F85
:1022F0009A8789874E815F8168858A850E949E11B1
:10230000BECF7394EE0CFF1C80E17812AECF6BCF82
:102310002A960FB6F894DEBF0FBECDBFDF91CF91E6
:102320001F910F91FF90EF90DF90CF90BF90AF90F3
:102330009F908F907F906F905F900895DF92EF92C3
:10234000FF920F931F93CF93DF93CDB7DEB72B97F9
:102350000FB6F894DEBF0FBECDBFF42E052F162F9B
:10236000E72ED82E61110E949B1AFE01319686E05D
:10237000DF011D928A95E9F77E2D4F2D502F612F99
:102380008D2D9E810E9468172B960FB6F894DEBFA4
:102390000FBECDBFDF91CF911F910F91FF90EF90B6
:1023A000DF900895FC01808191810E943C1A08957C
:1023B000CF93882371F1C82F8CEF8C0F813AD0F422
:1023C0006C2F8091790390917A030E94F71B8823E8
:1023D00049F06C2F8091790390917A030E942F1C11
:1023E0000E94C91A6C2F8091790390917A030E9400
:1023F0002D1C0CC080E28C0F883058F4C77081E02F
:1024000001C0880FCA95EAF70E947E1ACF910C94FA
:10241000C91ACF910895882349F1682F8CEF860F50
:10242000813A38F48091790390917A030E942F1CAD
:102430000CC080E2860F883050F4677081E001C0E4
:10244000880F6A95EAF70E94841A0C94C91A8BE5E2
:10245000860F833020F480E090E00C942A10685AB4
:10246000673120F480E090E00C94401008951F93B1
:10247000CF93DF93182FEB010E94D811209741F0E2
:102480008FE99FE00197F1F700C000002197F6CF98
:10249000812FDF91CF911F910C940B12893319F08A
:1024A00060E070E002C060E570E00C9437128823B1
:1024B00021F00E947E1A0C94C91A0895882321F0F5
:1024C0000E94841A0C94C91A0895CF92DF92EF9259
:1024D000FF920F931F93CF93DF937C01062FC72F9B
:1024E000FC011281D581D295DF700E94741A882375
:1024F00099F0112389F08C2F807F803421F080E2C5
:10250000800F883048F082E00E94131B0E94741AEA
:1025100091E0D82ED92601C0D12CCC2EC2948FE0C8
:10252000C8228C2D90E0FC01E45BFF4F0C94BF2788
:102530008C2F807FCF70882311F0C295C07F11232C
:1025400099F0CC2309F464C180E2800F883010F048
:10255000011104C08C2F0E947E1A03C08C2F0E9490
:102560008E1A0E94C91A54C1802F0E940B12CC23CC
:1025700009F473C180E2800F883010F0011104C0AB
:102580008C2F0E94841A03C08C2F0E94941A0E94E0
:10259000C91A63C18C2F807FCF70803211F0C29531
:1025A000C07F002319F00130C9F022C0112371F05F
:1025B000DD2341F0D13031F40E94AE1A8C2B0E9401
:1025C000B61A4BC10E94AE1A8C2B1DC0DD2319F028
:1025D000D13009F442C10E94BF1A25C0112321F055
:1025E000D63008F03AC10EC0D53008F036C11BC055
:1025F000112361F0DD2331F0F701858180FF08C1EF
:102600008F7085838C2F0E94571227C1DD2359F0CC
:10261000093309F00EC1FFEF27EE83E0F1502040AF
:102620008040E1F704C18C2F0E945E1216C18C2FEE
:10263000837009F045C0111114C1402F4295469591
:102640004770440F440F602F6F70862F90E0A0E01A
:10265000B0E0042E04C0880F991FAA1FBB1F0A9464
:10266000D2F704FF10C00FE010E020E030E004C01B
:10267000000F111F221F331F4A95D2F700951095A6
:102680002095309503C000E010E09801C695C695EE
:10269000C370BC01CD01602B712B822B932BC230F8
:1026A00049F058F4C13019F00E94B918DAC00E94FC
:1026B000A718D7C00E94CB18D4C00E94A518D1C0BB
:1026C000112319F08C2F817001C08695882309F49D
:1026D000C8C0402F429546954770440F440F602F65
:1026E0006F70862F90E0A0E0B0E0042E04C0880F49
:1026F000991FAA1FBB1F0A94D2F704FF10C00FE056
:1027000010E020E030E004C0000F111F221F331F33
:102710004A95D2F7009510952095309503C000E0BA
:1027200010E09801C695C695C370BC01CD01602B21
:10273000712B822B932BC23049F058F4C13019F021
:102740000E947E198EC00E946C198BC00E94901945
:1027500088C00E94DF1885C0CF70112339F08C2FFC
:102760000E940519802F0E9457127BC0802F0E9463
:102770005E128C2F0E94261974C0023F01F128F4CA
:10278000003F41F0013FA1F03FC0033FF9F0043F9B
:1027900039F13AC0112341F0D53008F05EC08C2FDA
:1027A0008F710E944B1959C0D63008F056C0F7CF30
:1027B000112339F08C2F8F710E9405194EC01123FF
:1027C000C9F38C2F8F710E94261947C0112329F05D
:1027D0008C2F8F710E94F01840C00E94EB183DC0F2
:1027E000112349F0CF718C2F0E94051963E08C2FC3
:1027F0000E94FE1A32C081E00E94131BD23068F1A1
:1028000082E00E94131B29C0112331F0DD2391F2D5
:10281000802F0E94D81121C0DD2399F2093349F499
:102820009FEFE7EEF3E09150E040F040E1F700C0A9
:102830000000802F0E940B1210C04C2F4F70602F91
:10284000C7010E947D030E9416180FC04C2F4F70C5
:10285000602FC7010E94800308C088EF8C0D843070
:1028600020F40E9413100E947403DD20C9F00E941E
:10287000701A80FD15C0F70112820E946A1A0E9428
:102880000519C7010E9471140E946A1ADF91CF9145
:102890001F910F91FF90EF90DF90CF900C9426192D
:1028A000DF91CF911F910F91FF90EF90DF90CF902C
:1028B00008950F931F93CF93DF93EC016881798183
:1028C0008A810E94471A8C010E94A2190E949318C3
:1028D000B801CE010E946512DF91CF911F910F9137
:1028E0000895CF93DF93EC01988189812B813C81FE
:1028F000232B31F08F3F31F481E09F3F19F403C067
:1029000081E001C080E080FD19C0CE010E94240357
:1029100081110CC00E94741A882381F08A81882357
:1029200069F082E0DF91CF910C94131BCE010E94DD
:102930005914CE01DF91CF910C94C802DF91CF9151
:1029400008950E949B1A0E94AB1A0C94C91A809198
:10295000790390917A030E94311C0C94A1140E9477
:102960008B1A0C94A714E92FE295EF704E2F50E0CC
:10297000FA013297EE30F105B0F4E45AFF4F0C94AF
:10298000BF27803F91F018F4883E68F40EC0843F62
:1029900051F40BC0883E48F0813F29F406C093FBF8
:1029A000882780F9089580E0089581E008950E94C5
:1029B0003C1A0E94B3140895CF93DF9300D000D047
:1029C0001F92CDB7DEB70F900F900F900F900F9022
:1029D000DF91CF910895CF93DF9300D000D000D046
:1029E000CDB7DEB726960FB6F894DEBF0FBECDBFCB
:1029F000DF91CF9108951F93CF93DF93C091280467
:102A000016E080912904C81799F0D0E01C9FF001CE
:102A10001D9FF00D1124E65DFB4F408151816281C5
:102A20007381848195810E94EB142196C770E9CF50
:102A3000DF91CF911F91089540915A0450915B040A
:102A400060915C0470915D0480915E0490915F04DC
:102A50000C94EB140F931F93CF93DF9380915F043B
:102A600082958F7009F05DC080915C04882309F421
:102A700058C0809128041091290460915A047091E3
:102A80005B04C0915D04D0915E0491E06F3F09F05A
:102A900090E0292F06E0811709F443C0209721F028
:102AA0007F3F21F030E003C031E001C0322F90E0E1
:102AB00030FD34C0089FF001099FF00D1124DF01A3
:102AC000A65DBB4F11963C911197371327C03C91DF
:102AD000361324C012963C91129731111FC01396E1
:102AE0004D915C9114974C1B5D0B483C5105B0F423
:102AF00080915F048F70806180935F04E15DFB4F84
:102B000080818F70806180838AE594E00E947114D7
:102B1000DF91CF911F910F910C94FB140196877058
:102B2000BACFDF91CF911F910F9108959F92AF92ED
:102B3000BF92CF92DF92EF92FF920F931F93CF93AA
:102B4000DF93CDB7DEB761970FB6F894DEBF0FBE47
:102B5000CDBF8C0185E0F801DE011D9601900D923C
:102B60008A95E1F7F80140815181E28090915A0401
:102B700060915B0420915D0430915E042115310564
:102B800031F06F3F31F481E09F3F19F403C081E0E1
:102B900001C080E0F82FF1709F2E80FD46C1F80142
:102BA000A380B4808AE5C82E84E0D82EF0905C041F
:102BB000F501E21BF30BFF2009F4DFC080915F04F5
:102BC000E83CF10508F09BC0282F207F09F052C097
:102BD000561313C0491311C0FE2CE1100EC08F70A4
:102BE000806180935F040E941C15C6010E947114CD
:102BF00080915F04F801858358C1AB2831F05F3FB5
:102C000031F481E04F3F19F403C081E001C080E05E
:102C100080FD03C081E08E2502C080E090E0F82FA7
:102C2000F170FF2E80FF1CC08091280420912904A0
:102C300036E0821709F417C190E0389FF001399F00
:102C4000F00D1124E65DFB4F6181561306C06081D3
:102C5000461303C06281E61203C001968770E9CF74
:102C6000FE2CEE2009F421C180915F0481608093E5
:102C70005F045AC0561306C0491304C0E11002C0D5
:102C8000F8019FC04D875E878D859E850E94D71471
:102C9000882379F1EE2069F120915F04822F8295DB
:102CA0008F7090E0029774F080915A0490915B04C9
:102CB00098878F831986BB86AA862C87CE010796B4
:102CC0000E94711486E0F801AAE5B4E001900D922B
:102CD0008A95E1F70E942A150E941C150DC056170F
:102CE00029F14D875E878D859E850E94D7148111BD
:102CF0002CC0C8010E947114FF24F394D6C0282F61
:102D0000207F69F77A2DB98AA88A6E2D89890E9459
:102D1000DC148AE594E00E94711486E0F6011192B9
:102D20008A95E9F70E941C15F12CBFC04913D9CF31
:102D3000E110D7CFF8018583C8010E94711486E0A5
:102D4000F60111928A95E9F7B0C0EE2091F2209138
:102D50005F04822F82958F7090E002970CF4B2CFBF
:102D600080915A0490915B049A8389831B82BD826F
:102D7000AC822E83CE010196A3CFE83CF10508F08A
:102D800047C0FE2CEE2009F4B4CF561330C04913CF
:102D90002EC020915F0420FD21C0822F82958F706C
:102DA000482F50E041155105C9F0F80125834F30F7
:102DB000510541F08F5F982F9295907F822F8F70F1
:102DC000892B8583C8010E94711486E0F801AAE569
:102DD000B4E001900D928A95E1F742C086E0F801D7
:102DE000AAE5B4E001900D928A95E1F75EC04D87A7
:102DF0005E878D859E850E94D714811163CF809157
:102E00005F04816080935F04C8010E9471144DC00B
:102E10007A2DB98AA88A6E2D89890E94DC1486E0F1
:102E2000F60111928A95E9F71BC0EE2009F461CFF3
:102E30004D875E878D859E850E94D714F82E882346
:102E400009F457CF86E0F801AAE5B4E001900D92AD
:102E50008A95E1F78AE594E00E94D2110E942A1532
:102E60000E941C1522C04D875E878D859E850E941D
:102E70003C1A292F22952F70223028F49F7039F0A8
:102E8000811105C00BC0243028F49F7049F4805E86
:102E9000883020F0C8010E9471149F2CF92C05C0C5
:102EA000F8019581907F99F7F9CF8F2D61960FB634
:102EB000F894DEBF0FBECDBFDF91CF911F910F9170
:102EC000FF90EF90DF90CF90BF90AF909F900895CC
:102ED0001F93CF93DF93CDB7DEB72C970FB6F8943F
:102EE000DEBF0FBECDBF4F83588769877A878B8738
:102EF0009C87CE0107960E9496158823D1F09F816A
:102F000088852A853B85232B31F08F3F31F481E082
:102F10009F3F19F403C081E001C080E080FD47C0FD
:102F20004F81588569857A858B859C850E94EB1435
:102F30003EC086E0FE013796DE01119601900D92AB
:102F40008A95E1F7FF81E8856A857B8561157105C2
:102F500031F0EF3F31F481E0FF3F19F403C081E02D
:102F600001C080E080FD23C02091290430E0C90128
:102F70000196877099274091280450E0841795079F
:102F8000F1F1F983EA837D836C8396E0929FD0010F
:102F9000939FB00D1124A65DBB4FFE0131960190A9
:102FA0000D929A95E1F7809329040E94FB1416E094
:102FB0008091280490912904891771F1189FC0010C
:102FC0001124865D9B4F0E949615882329F1E0917C
:102FD00028041E9FF0011124E65DFB4F40815181C2
:102FE00062817381848195810E94EB148091280411
:102FF00090E001968770992780932804D9CF0E948A
:10300000AF141092290410922804EAE5F4E086E057
:10301000DF011D928A95E9F72C960FB6F894DEBF72
:103020000FBECDBFDF91CF911F910895EF92FF9218
:103030000F931F93CF93DF938C01892B09F46CC0FE
:10304000F12CEE24E394E8012196F8018491843771
:1030500040F4843008F051C0813081F0823019F1A1
:103060005BC0853709F444C0A8F19CE7980F9037FE
:1030700008F052C08F770E940B1241C00E5F1F4FA5
:10308000FE01849190E2980F983050F48770FE2DE5
:1030900001C0FF0F8A95EAF78F2F0E949E1A14C075
:1030A0000E94D8112DC00E5F1F4FFE01849190E247
:1030B000980F983060F48770FE2D01C0FF0F8A953D
:1030C000EAF78F2F0E94A41A0E94C91A19C00E9401
:1030D0000B1216C00E5F1F4FFE01C491CC2381F06E
:1030E0008FE99FE00197F1F700C00000C150F6CFD3
:1030F0000E5F1F4FFE01F49003C00E94D8118E0195
:103100008F2D882309F49FCFEFE9FFE03197F1F786
:1031100000C000008150F5CFDF91CF911F910F913A
:10312000FF90EF900895089508950C9494180C94CE
:1031300095180E9497186093D2047093D3048093DB
:10314000D4049093D5040C94A1140C9499180F9363
:103150001F930091D2041091D3042091D404309194
:10316000D504602B712B822B932B1F910F910C9404
:1031700099180F931F930091D2041091D3042091BA
:10318000D4043091D50460237123822393231F91AB
:103190000F910C9499180F931F930091D2041091E2
:1031A000D3042091D4043091D5046027712782275D
:1031B00093271F910F910C9499180C9494180E94C6
:1031C000DD186093CE047093CF048093D004909365
:1031D000D1040C94A11460E070E0CB010C94DF18D2
:1031E0000F931F9341E050E060E070E08A019B0183
:1031F00004C0000F111F221F331F8A95D2F7C90187
:10320000B8011F910F910C94DF180F931F9341E0A9
:1032100050E060E070E004C0440F551F661F771F48
:103220008A95D2F78091CE049091CF04A091D004DA
:10323000B091D1048A019B01082B192B2A2B3B2B1F
:10324000C901B8011F910F910C94DF180F931F93C0
:1032500041E050E060E070E004C0440F551F661F7D
:10326000771F8A95D2F7409550956095709580911B
:10327000CE049091CF04A091D004B091D1048A01E2
:103280009B01082319232A233B23C901B8011F915D
:103290000F910C94DF180F931F9341E050E060E012
:1032A00070E004C0440F551F661F771F8A95D2F740
:1032B0008091CE049091CF04A091D004B091D1041C
:1032C0008A019B01082719272A273B27C901B80132
:1032D0001F910F910C94DF180F931F930091CE0450
:1032E0001091CF042091D0043091D104602B712B28
:1032F000822B932B1F910F910C94DF180F931F9328
:103300000091CE041091CF042091D0043091D104CB
:1033100060237123822393231F910F910C94DF1854
:103320000F931F930091CE041091CF042091D004ED
:103330003091D10460277127822793271F910F9125
:103340000C94DF18089520E1929F800D1124E82F3E
:10335000E695E695E695877051E001C0550F8A9590
:10336000EAF785E0E89FF0011124E05AFB4F20E0E6
:1033700030E070E04081CB01022E02C09695879527
:103380000A94E2F7817081958427852384278193AD
:103390002F5F3F4F2530310569F7089520E1929F57
:1033A000800D1124682F669566956695982F977005
:1033B00085E0689FB001112440E050E080E0FB010F
:1033C000E40FF51FE05AFB4F208130E0092E02C0C8
:1033D000369527950A94E2F721703327042E01C011
:1033E000220F0A94EAF7822B4F5F5F4F4530510559
:1033F00031F70895BF92CF92DF92EF92FF920F9331
:103400001F93CF93DF938C01C090CE04D090CF0454
:10341000E090D004F090D1048091D2049091D30434
:10342000A091D404B091D504C82AD92AEA2AFB2A4B
:10343000CFE1D0E0D701C6010C2E04C0B695A79508
:10344000979587950A94D2F780FD04C0219790F74D
:10345000B12C07C0BC2EB8018C2F0E949E0301978F
:10346000A9F38B2DDF91CF911F910F91FF90EF90DA
:10347000DF90CF90BF900895CF93DF93EC010E942F
:10348000FA19BE010E949E03DF91CF9108951F9308
:10349000CF93DF93EB0190912704992321F0CB0187
:1034A0000E943C1A13C0882349F0CB010E94FA19EC
:1034B000182F682FCE010E94A31904C0CB010E94CF
:1034C000CE19182FBE01812F0E949E03DF91CF914C
:1034D0001F9108958091D6048595859585950895C9
:1034E0008091D604877008959091D604977081E0FA
:1034F00009F480E008958091E20408959091E20437
:10350000892B8093E204089580959091E2048923A9
:103510008093E20408951092E20408959091E104EA
:10352000892B8093E104089580959091E10489238B
:103530008093E10408951092E10408959091E004CD
:10354000892B8093E004089580959091E00489236D
:103550008093E00408951092E00408958091D704C8
:10356000089508950C94B11A0C94B21A9091D7044E
:10357000981721F08093D7040C94B41A0895809181
:10358000D704882329F01092D70480E00C94B41A51
:103590000895E0917903F0917A038091E2048083A9
:1035A000E0917903F0917A0390818091E104892B75
:1035B0008083E0917903F0917A0390818091E00417
:1035C000892B80838091D704882381F0E09179034F
:1035D000F0917A039081892B808380917903909177
:1035E0007A030E94EB1B81110E94BF1A809179031C
:1035F00090917A030C941F100C94B11A98E0899F53
:1036000090011124262B2093D6040E940519809145
:10361000D6048595859585950C94FC1A1092D60450
:1036200080E00C94FC1A2091D6048095822380932C
:10363000D604982F977079F430E0482F082E000CAC
:10364000550B2417350739F08595859585950E948A
:1036500026190C940E1B089580E008956FEF7FEFFC
:1036600080E090E00C94172880E090E00E94F3271F
:1036700021E08B3E9E4F09F020E0822F089582E0EA
:1036800090E00C94EB2783E090E00C94EB27CF9331
:1036900084E090E00E94EB27C82F81E290E00E9436
:1036A000EB272C2F30E0A901582BCA01CF910895A8
:1036B000CF93C92F682F84E090E00E94F9276C2FE8
:1036C00081E290E0CF910C94F92787E090E00C9490
:1036D000EB27682F87E090E00C94F927AB01BC0141
:1036E0008FE090E00C940B28AB01BC0183E190E0EB
:1036F0000C940B2860E070E0CB010C94741B60E02C
:1037000070E0CB010E946E1B0C947A1B6BEE7EEF77
:1037100080E090E00E94172860E082E090E00E9444
:10372000F92760E083E090E00E94F9271092D2042C
:103730001092D3041092D4041092D50460E084E077
:1037400090E00E94F92760E081E290E00E94F92772
:1037500060E085E090E00E94F92760E086E090E07C
:103760000E94F9276FEF87E090E00E94F92740E080
:1037700050E0BA0188E090E00E940B2860E08DE004
:1037800090E00E94F92740E050E0BA0188E190E023
:103790000E940B2860E087E190E00E94F92740E05A
:1037A00050E0BA018CE190E00E940B2860E080E2DA
:1037B00090E00E94F92740E050E0BA0188E190E0F3
:1037C0000E940B280C947F1B0C94861B682F8EE0A4
:1037D00090E00C94F927FC01329697E080E091503C
:1037E00029F021912223D9F38F5FF9CF0895662321
:1037F00049F0FC01329608962191621729F0E817EA
:10380000F907D1F780E0089581E008959C01FC015B
:1038100032969FEF80E04191461789F09F3F19F45F
:10382000411101C0982F8F5F8630A9F79F3F39F073
:10383000F901E90FF11D97FDFA9562830895089546
:103840009C012A5F3F4FFC014281461301C0128256
:10385000019682179307B9F708950C94061C0C94EF
:10386000201C029626E0FC0111922A95E9F70895A2
:1038700008950C94381C0C94381CCF930E943B1C68
:103880000E94CB050E94391CC0E08C2F0E9471055C
:10389000892B29F4CF5FCB30C1F780E001C081E0F4
:1038A000CF9108950C94381C0C94521C80917B0588
:1038B000843059F10E94541C80E00E9474030E94DD
:1038C00005071092E40420E488E190E00FB6F89434
:1038D000A895809360000FBE2093600083B7817F1E
:1038E000846083BF83B7816083BF7894889583B7F2
:1038F0008E7F83BF0FB6F894A89580916000886191
:1039000080936000109260000FBE08950C94381CE4
:103910000E94AF140E9413100E9474030C94861C22
:103920001F920F920FB60F9211248F939F93AF9314
:10393000BF938091E404811113C08091710590912F
:103940007205A0917305B09174054196A11DB11D3A
:103950008093710590937205A0937305B0937405DD
:10396000BF91AF919F918F910F900FBE0F901F90BD
:10397000189582E084BD93E095BD9AEF97BD809342
:103980006E0008952FB7F89480917105909172059B
:10399000A0917305B09174052FBF08952FB7F894C7
:1039A0006091710570917205809173059091740515
:1039B0002FBF08959C014FB7F894809171059091A5
:1039C0007205A0917305B09174054FBF821B930BD4
:1039D000089578941F920F920FB60F9211248F932F
:1039E0009F93AF93BF938091710590917205A091C1
:1039F0007305B09174050196A11DB11D80937105E9
:103A000090937205A0937305B0937405BF91AF9125
:103A10009F918F910F900FBE0F901F901895F89463
:103A200081E08093E00080E28093D800E9ECF0E050
:103A300010828FE19EE40197F1F700C000001DBAEB
:103A4000109268001CBC10BE1FBA10927A0010922F
:103A50006E0010926F001092700010927100108230
:103A60001092BC0011B814B817B81AB81DB810BA23
:103A700012B815B818B81BB81EB811BA0C9400FECD
:103A800008959093C5038093C40308950C942E1B4E
:103A90000E94CB058FE39CE90197F1F700C000007D
:103AA0000E94CB0585E00E94710582FF04C00E9440
:103AB000461D0C940F1D08950E94341B811102C0F5
:103AC0000E94E41B0E943F1B8093E3040E94471B5B
:103AD00090937605809375050E94431B682F70E0D4
:103AE00080E090E00E94A5186091CE047091CF0410
:103AF0008091D0049091D1040C94DD188091ED0454
:103B0000089508950895CF93DF9321E02093E9006D
:103B10002FEF3091E800215035FD06C035ED3A9584
:103B2000F1F700002111F5CF2091E80025FF14C026
:103B3000EC0140E050E068E070E00E942D1F8091B1
:103B4000E8008E778093E80088E0FE01A5EEB4E0FF
:103B500001900D928A95E1F7DF91CF910895089534
:103B600080917A05811109C00E94BA200E941C210F
:103B70008091E20084608093E200089510927A05BB
:103B8000089508950895089542E061EC81E00C9451
:103B9000332080917D05833009F45EC030F481309C
:103BA00071F0823009F497C008958A3009F483C017
:103BB0008B3009F469C0893009F0A5C020C080911C
:103BC0007C05813A09F09FC08091E800877F80934F
:103BD000E8008091800590918105892B21F468E0AF
:103BE00085EE94E003C060E080E090E070E00E9429
:103BF000781F8091E8008B778093E800089580918A
:103C00007C05813209F07FC080918005909181050B
:103C1000892B09F078C08091E800877F8093E800C5
:103C20008091E80082FD05C080917B058111F8CF6D
:103C30006AC08091F2009091F300029729F480917C
:103C4000F1008B7F813021F48091F1008093ED04AD
:103C50008091E8008B7753C080917C05813A09F010
:103C600052C08091800590918105892B09F04BC04D
:103C70008091E800877F8093E8008091E80080FFD2
:103C8000FCCF8091850336C080917C058132D9F5C7
:103C90008091800590918105892BA9F58091E8009C
:103CA000877F8093E8000E94682080917E05809342
:103CB00085030C94AF1480917C05813221F58091AD
:103CC000E800877F8093E8000E94682080917F054C
:103CD0008093EE04089580917C05813AA1F480914F
:103CE000E800877F8093E8008091E80080FFFCCFA8
:103CF0008091EE048093F1008091E8008E778093AC
:103D0000E8000C946820089584B7877F84BF0FB6BD
:103D1000F894A8958091600088618093600010926B
:103D200060000FBE90E080E80FB6F89480936100C9
:103D3000909361000FBE0E94AD100E94BA200E94B5
:103D40001C218091E20084608093E20078940E94BC
:103D5000B7230E94B7108BE793E00E940E1080916A
:103D60007B058530A9F480917B05853079F40E942C
:103D7000561C809179058823B1F30E943D1C88234D
:103D800091F30E94171F0E94AF14EDCF0E94881C70
:103D90000E94BF100E94A1100E94A010E0CF0C94BE
:103DA000D11E292F332723303105C1F058F421309B
:103DB000310579F02230310591F582E290E020E57D
:103DC00034E031C021323105E1F02232310501F118
:103DD00026C082E190E022E734E025C099278130B7
:103DE000910549F028F00297D1F4EAE2F4E005C029
:103DF000ECE4F4E002C0EEE3F4E0849190E09F0193
:103E000012C0672B61F489E090E022E634E00BC039
:103E1000672B29F480E490E024E834E004C080E0DB
:103E200090E020E030E0FA0131832083089584E1BE
:103E300089BD86E189BD09B400FEFDCF8091D8001F
:103E40008F7D8093D8008091E00082608093E000B5
:103E50008091E00081FDFCCF0895CF92DF92EF9238
:103E6000FF920F931F93CF93DF93EC018B017A01A5
:103E70000E948720811133C0E114F10439F0F70169
:103E800080819181081B190BC80FD91FC12CD12C1F
:103E90000115110519F18091E80085FD16C080918A
:103EA000E8008E778093E800E114F10449F0F7010F
:103EB00080819181C80ED91ED182C08285E00FC059
:103EC0000E948720882321F30AC089918093F10002
:103ED00001501109FFEFCF1ADF0ADACF80E0DF913E
:103EE000CF911F910F91FF90EF90DF90CF900895A9
:103EF00020918205309183052617370748F0611518
:103F0000710539F42091E8002E772093E80001C074
:103F1000B901FC0120E06115710569F180917B0513
:103F20008823E1F18530E1F18091E80083FD3AC01A
:103F30008091E80082FD2CC08091E80080FFEBCFEB
:103F40008091F2009091F3006115710551F0883075
:103F5000910538F421912093F10061507109019687
:103F6000F3CF21E0089709F020E08091E8008E77F8
:103F70008093E800D0CF2111D1CF0AC080917B057A
:103F8000882361F0853061F08091E80083FD0AC0EC
:103F90008091E80082FFF2CF80E0089582E00895EA
:103FA00083E0089581E00895209182053091830592
:103FB0002617370748F06115710539F42091E8009C
:103FC0002E772093E80001C0B901FC0120E06115C3
:103FD000710581F180917B05882309F43EC085300D
:103FE00009F43DC08091E80083FD3BC08091E8006A
:103FF00082FD2DC08091E80080FFE9CF8091F20022
:104000009091F3006115710559F08830910540F4E5
:1040100024912093F1003196615071090196F2CFFD
:1040200021E0089709F020E08091E8008E778093E6
:10403000E800CDCF2111CECF0AC080917B05882327
:1040400061F0853061F08091E80083FD0AC08091C5
:10405000E80082FFF2CF80E0089582E0089583E0D7
:10406000089581E00895982F973068F59093E900BE
:10407000981739F07091EC002091ED005091F0000C
:1040800003C0242F762F50E021FD02C09F5FECCFAC
:104090003091EB003E7F3093EB003091ED003D7F9F
:1040A0003093ED003091EB0031603093EB00709372
:1040B000EC002093ED005093F0002091EE0027FDDE
:1040C000E5CF80E008958F708093E90081E0089546
:1040D00080917C0587FF11C08091E80082FD05C0BA
:1040E00080917B058111F8CF11C08091E8008B771A
:1040F0000BC080917B05882349F08091E80080FF08
:10410000F8CF8091E8008E778093E80008952091A1
:10411000E4003091E50095E64091EC00842F817039
:1041200040FF23C08091E80080FD1DC080917B0589
:10413000882399F0853099F08091EB0085FD11C0BE
:104140004091E4005091E5002417350729F3915080
:1041500011F09A01E1CF84E0089582E0089583E0B0
:10416000089581E0089580E008954091E80042FFBD
:10417000DDCF08950E942B210E943321E0EEF0E074
:10418000808181608083E8EDF0E080818F7780839B
:1041900019BCA7EDB0E08C918E7F8C9380818F7ECF
:1041A000808310927A0508950F931F93CF93DF9326
:1041B0000E942B210E943321C8EDD0E088818F77A7
:1041C000888388818068888388818F7D8883E7EDF4
:1041D000F0E080818068808319BC10927B0510928A
:1041E0007705109279051092780500EE10E0F8013D
:1041F00080818B7F808388818160888342E060E05A
:1042000080E00E943320E1EEF0E080818E7F8083A9
:10421000E2EEF0E08081816080838081886080832D
:10422000F80180818E7F8083888180618883DF911F
:10423000CF911F910F910895E8EDF0E080818F7E7E
:104240008083E7EDF0E080818160808381E080936E
:104250007A050C94D420E8EDF0E080818C7F808397
:104260001092E20008951092DA001092E100089591
:104270001F920F920FB60F9211240BB60F922F932D
:104280003F934F935F936F937F938F939F93AF93DE
:10429000BF93EF93FF938091E10082FF0BC0809169
:1042A000E20082FF07C08091E1008B7F8093E100F4
:1042B0000E94B6238091DA0080FF1FC08091D80051
:1042C00080FF1BC08091DA008E7F8093DA0080919E
:1042D000D90080FF0DC084E189BD86E189BD09B4A4
:1042E00000FEFDCF81E080937B050E94B01D05C0DC
:1042F00019BC10927B050E94BE1D8091E10080FFD9
:1043000019C08091E20080FF15C08091E2008E7F8D
:104310008093E2008091E20080618093E2008091CE
:10432000D80080628093D80019BC85E080937B051B
:104330000E94C21D8091E10084FF30C08091E200A4
:1043400084FF2CC084E189BD86E189BD09B400FEEB
:10435000FDCF8091D8008F7D8093D8008091E100BF
:104360008F7E8093E1008091E2008F7E8093E20057
:104370008091E20081608093E2008091770588233C
:1043800011F084E007C08091E30087FD02C081E066
:1043900001C083E080937B050E94C31D8091E100F2
:1043A00083FF29C08091E20083FF25C08091E10056
:1043B000877F8093E10082E080937B0510927705F0
:1043C0008091E1008E7F8093E1008091E2008E7FFA
:1043D0008093E2008091E20080618093E20042E0FD
:1043E00060E080E00E9433208091F000886080933C
:1043F000F0000E94C11DFF91EF91BF91AF919F917D
:104400008F917F916F915F914F913F912F910F907D
:104410000BBE0F900FBE0F901F9018951F920F921A
:104420000FB60F9211240BB60F922F933F934F9319
:104430005F936F937F938F939F93AF93BF93CF932C
:10444000DF93EF93FF93C091E900CF708091EC0070
:10445000D82FD17080FDD0E81092E9008091F00053
:10446000877F8093F00078940E9456221092E90092
:104470008091F00088608093F000CD2BCF70C093C6
:10448000E900FF91EF91DF91CF91BF91AF919F91A3
:104490008F917F916F915F914F913F912F910F90ED
:1044A0000BBE0F900FBE0F901F9018951F93CF93C8
:1044B000DF93CDB7DEB7AA970FB6F894DEBF0FBE75
:1044C000CDBFECE7F5E08091F100819325E0E43881
:1044D000F207C9F70E94C91D8091E80083FF2EC131
:1044E00080917C0590917D05492F50E04A3051051F
:1044F00008F024C1FA01E659FF4F0C94BF27803819
:1045000021F0823809F01AC108C080917805909195
:104510007905992389F082600FC0809180058F70A2
:10452000873008F00BC18093E9008091EB0085FB98
:10453000882780F91092E9009091E800977F909386
:10454000E8008093F1001092F100D1C0282F2D7F58
:1045500009F0F4C0882319F0823061F0EFC0809137
:104560007E05813009F0EAC0933009F080E0809345
:1045700079052EC080917E0581112AC08091800529
:104580008F702FEF280F263008F0D8C08093E900F5
:104590002091EB0020FF1CC0933021F48091EB00B0
:1045A000806214C09091EB0090619093EB0021E049
:1045B00030E0A90102C0440F551F8A95E2F74093ED
:1045C000EA001092EA008091EB0088608093EB0093
:1045D0001092E9008091E800877F8093E8000E94B4
:1045E0006820ACC08111AAC010917E051F77809110
:1045F000E3008078812B8093E3008091E800877F3F
:104600008093E8000E9468208091E80080FFFCCF42
:104610008091E30080688093E300111102C082E082
:1046200001C083E080937B0589C08058823008F008
:1046300085C080917E0590917F058C3D53E0950764
:1046400079F583E08A838AE289834FB7F894DE01A3
:10465000139620E03EE051E2E32FF0E05093570044
:10466000E49120FF03C0E295EF703F5FEF708E2F63
:1046700090E0EA3010F0C79601C0C0968D939D93EC
:104680002F5F243149F74FBF8091E800877F8093E7
:10469000E8006AE270E0CE0101960E94781F16C021
:1046A0006091800570918105AE014F5F5F4F0E9460
:1046B000CF1EBC01892B09F441C09091E800977F7F
:1046C0009093E80089819A810E94D41F8091E8002C
:1046D0008B778093E80032C0803881F58091E800C4
:1046E000877F8093E800809177058093F100809127
:1046F000E8008E7772CF811121C080917E05909164
:104700007F0599270297D4F48091E800877F8093F2
:10471000E80080917E05809377050E946820809153
:104720007705811106C08091E30087FD02C081E01A
:1047300001C084E080937B050E94C41D8091E80045
:1047400083FF0AC08091E800877F8093E800809112
:10475000EB0080628093EB00AA960FB6F894DEBF60
:104760000FBECDBFDF91CF911F9108950895CF93D4
:1047700080917B058823A1F0C091E900CF709091D2
:10478000EC00892F817090FD80E8C82B1092E90021
:104790008091E80083FD0E945622CF70C093E9000B
:1047A000CF9108950E94B52408F481E008950E94F5
:1047B000EB230C94F0240E94E92458F00E94E22498
:1047C00040F029F45F3F29F00C94D92451110C9446
:1047D00024250C94DF240E94012568F39923B1F36A
:1047E000552391F3951B550BBB27AA276217730717
:1047F000840738F09F5F5F4F220F331F441FAA1FAB
:10480000A9F335D00E2E3AF0E0E832D09150504066
:10481000E695001CCAF72BD0FE2F29D0660F771F14
:10482000881FBB1F261737074807AB07B0E809F0FA
:10483000BB0B802DBF01FF2793585F4F3AF09E3F7F
:10484000510578F00C94D9240C9424255F3FE4F3AF
:10485000983ED4F3869577956795B795F7959F5FC2
:10486000C9F7880F911D9695879597F90895E1E00E
:10487000660F771F881FBB1F621773078407BA076D
:1048800020F0621B730B840BBA0BEE1F88F7E095C8
:1048900008950E94092588F09F5798F0B92F99270D
:1048A000B751B0F0E1F0660F771F881F991F1AF01B
:1048B000BA95C9F714C0B13091F00E942325B1E038
:1048C00008950C942325672F782F8827B85F39F037
:1048D000B93FCCF3869577956795B395D9F73EF4B4
:1048E00090958095709561957F4F8F4F9F4F08955C
:1048F000E89409C097FB3EF490958095709561957A
:104900007F4F8F4F9F4F9923A9F0F92F96E9BB272F
:104910009395F695879577956795B795F111F8CFAB
:10492000FAF4BB0F11F460FF1BC06F5F7F4F8F4F16
:104930009F4F16C0882311F096E911C0772321F00C
:104940009EE8872F762F05C0662371F096E8862FA4
:1049500070E060E02AF09A95660F771F881FDAF7FB
:10496000880F9695879597F90895990F0008550F28
:10497000AA0BE0E8FEEF16161706E807F907C0F0E5
:1049800012161306E407F50798F0621B730B840BED
:10499000950B39F40A2661F0232B242B252B21F4C7
:1049A00008950A2609F4A140A6958FEF811D811D67
:1049B000089597F99F6780E870E060E008959FEFA1
:1049C00080EC089500240A941616170618060906A6
:1049D000089500240A941216130614060506089575
:1049E000092E0394000C11F4882352F0BB0F40F4FD
:1049F000BF2B11F460FF04C06F5F7F4F8F4F9F4F3D
:104A0000089557FD9058440F551F59F05F3F71F0BE
:104A10004795880F97FB991F61F09F3F79F0879525
:104A20000895121613061406551FF2CF4695F1DFAE
:104A300008C0161617061806991FF1CF869571053E
:104A4000610508940895E894BB2766277727CB0172
:104A500097F908950E943D250C94F0240E94E224C9
:104A600038F00E94E92420F0952311F00C94D92409
:104A70000C94DF2411240C9424250E94012570F34A
:104A8000959FC1F3950F50E0551F629FF001729FF3
:104A9000BB27F00DB11D639FAA27F00DB11DAA1F02
:104AA000649F6627B00DA11D661F829F2227B00D4F
:104AB000A11D621F739FB00DA11D621F839FA00DDA
:104AC000611D221F749F3327A00D611D231F849F2A
:104AD000600D211D822F762F6A2F11249F57504081
:104AE0009AF0F1F088234AF0EE0FFF1FBB1F661FFC
:104AF000771F881F91505040A9F79E3F510580F0C5
:104B00000C94D9240C9424255F3FE4F3983ED4F30D
:104B1000869577956795B795F795E7959F5FC1F768
:104B2000FE2B880F911D9695879597F90895FA01A8
:104B3000EE0FFF1F309621053105A1F161157105BA
:104B400061F48038BFE39B0749F168949038810590
:104B500061F08038BFEF9B0741F099234AF5FF3F92
:104B6000E1053105210519F1E8940894E795D9018B
:104B7000AA2329F4AB2FBE2FF85FD0F310C0FF5F3C
:104B800070F4A695E0F7F73950F019F0FF3A38F4D1
:104B90009F779F930DD00F9007FC9058089546F093
:104BA0000C94DF2460E070E080E89FE308954FE715
:104BB0009F775F934F933F932F930E9492262F915D
:104BC0003F914F915F910E942A250C94EF2529F483
:104BD00016F00C94D9240C9423250C94DF240E9405
:104BE0000925A8F39638A0F707F80F92E8942BE36D
:104BF0003AEA48EB5FE70E9440250F920F920F922E
:104C00004DB75EB70F920E94DA26E8EEF0E00E9400
:104C100021264F915F91EF91FF91E595EE1FFF1FC8
:104C200049F0FE57E0684427EE0F441FFA95E1F77C
:104C30004195550B0E9454260F9007FE0C94482670
:104C40000895DF93CF931F930F93FF92EF92DF921C
:104C50007B018C01689406C0DA2EEF010E943D258D
:104C6000FE01E894A5912591359145915591A6F3C2
:104C7000EF010E942627FE019701A801DA9469F747
:104C8000DF90EF90FF900F911F91CF91DF910895EA
:104C90009B01AC0160E070E080E89FE30C94D723B7
:104CA0000C94D9240C947B270E940925D8F39923CE
:104CB000C9F3940F511DA3F39150504094F059F053
:104CC000882332F0660F771F881F91505040C1F73C
:104CD0009E3F51052CF7880F911D9695879597F962
:104CE00008955F3FACF0983E9CF0BB278695779582
:104CF0006795B79508F4B1609395C1F7BB0F58F766
:104D000011F460FFE8CF6F5F7F4F8F4F9F4FE3CF6E
:104D10000C94242516F00C947B270C94DF246894C3
:104D20000C94D9240E940925A8F39923C1F3AEF36A
:104D3000DF93CF931F930F93FF92C92FDD27882313
:104D40002AF02197660F771F881FDAF720E030E0FE
:104D500040E85FEB9FE3883920F0803E38F02196F1
:104D60008F770E940F27E0E1F1E004C00E940F2737
:104D7000EDE3F1E00E9421268B01BE01EC01FB2E48
:104D80006F5771097595771F880B990B0E947A24CC
:104D900028E132E741E35FE30E943D25AF2D980112
:104DA000AE01FF900F911F91CF91DF910E942627B6
:104DB0000C94F024FA01DC01AA0FBB1F9B01AC018B
:104DC000BF5728F4222733274427507820C0B751F3
:104DD00090F4AB2F0024469537952795011CA39599
:104DE000D2F3002071F0220F331F441FB395DAF382
:104DF0000ED00C940E2761307105A0E88A07B946E1
:104E000030F49B01AC01662777278827907830968D
:104E100021F0208331834283538308955058BB2768
:104E2000AA270E9426270C94F0240E94E22438F03E
:104E30000E94E92420F039F49F3F19F426F40C94E1
:104E4000DF240EF4E095E7FB0C94D924E92F0E94AF
:104E5000012558F3BA17620773078407950720F0F6
:104E600079F4A6F50C9423250EF4E0950B2EBA2FB9
:104E7000A02D0B01B90190010C01CA01A001112460
:104E8000FF27591B99F0593F50F4503E68F11A160C
:104E9000F040A22F232F342F4427585FF3CF46959D
:104EA00037952795A795F0405395C9F77EF41F16BF
:104EB000BA0B620B730B840BBAF09150A1F0FF0F89
:104EC000BB1F661F771F881FC2F70EC0BA0F621F75
:104ED000731F841F48F4879577956795B795F79565
:104EE0009E3F08F0B0CF9395880F08F09927EE0FFA
:104EF0009795879508959F3F31F0915020F48795BD
:104F000077956795B795880F911D9695879597F931
:104F1000089597FB072E16F4009407D077FD09D06B
:104F20000E94D72707FC05D03EF4909581959F4FAE
:104F30000895709561957F4F0895A1E21A2EAA1BDE
:104F4000BB1BFD010DC0AA1FBB1FEE1FFF1FA21739
:104F5000B307E407F50720F0A21BB30BE40BF50B36
:104F6000661F771F881F991F1A9469F760957095BF
:104F7000809590959B01AC01BD01CF010895EE0F86
:104F8000FF1F0024001C0BBE0790F691E02D099432
:104F9000A29FB001B39FC001A39F700D811D11247A
:104FA000911DB29F700D811D1124911D0895AA1BA2
:104FB000BB1B51E107C0AA1FBB1FA617B70710F004
:104FC000A61BB70B881F991F5A95A9F78095909536
:104FD000BC01CD010895F999FECF92BD81BDF89A2B
:104FE000992780B50895A8E1B0E042E050E00C9424
:104FF0001F28262FF999FECF92BD81BDF89A0197FF
:1050000000B4021639F01FBA20BD0FB6F894FA9A10
:10501000F99A0FBE08950396272F0E94FA270E943F
:10502000F927252F0E94FA27242F0C94FA2701969E
:10503000272F0E94FA270C94F927DC01CB01FC01F1
:10504000F999FECF06C0F2BDE1BDF89A319600B4E1
:0E5050000D9241505040B8F70895F894FFCFEC
:10505E0052D02445000000410000DC440000004115
:10506E0052D0A4440000404100005C440000804146
:10507E005C978A440000804152D0A44400008041D5
:10508E000000DC4400008041010000DC4400000010
:10509E004100005C440000004100005C4400000040
:1050AE00410000DC440000004152D0A44400000046
:1050BE00410000DC440000004152D0244500004075
:1050CE004178320000DC44000000410AA7CF4400C2
:1050DE000000415CFFB8440000004152D0A44400DF
:1050EE000000411FD59244000000415C978A4400A5
:1050FE0000004148F176440000004100005C44008D
:10510E0000004100005C440000004148F17644007C
:10511E000000415C978A44000000411FD592440074
:10512E0000004152D0A444000000415CFFB844008E
:10513E000000410AA7CF44000000410000DC4400FB
:10514E000000410000DC44000000410AA7CF4400EB
:10515E000000415CFFB8440000004152D0A444005E
:10516E000000411FD59244000000415C978A440024
:10517E0000004148F176440000004100005C44000C
:10518E0000004100005C440000004148F1764400FC
:10519E000000415C978A44000000411FD5924400F4
:1051AE0000004152D0A444000000415CFFB844000E
:1051BE000000410AA7CF44000000410000DC44007B
:1051CE0000004100005C44000080411F156944004E
:1051DE0000804148F176440000804100D0824400B6
:1051EE000080415C978A4400008041A4D024440092
:1051FE0000804100005C44000080411FD5924400B5
:10520E000080415CFFC344000080410000000000AC
:10521E000000005CFF4344000080411FD592440013
:10522E000080410000DC440000804152D024450043
:10523E00008041000000000000000000005C4400FF
:10524E0000804148F17644000080415C978A44001A
:10525E000080411FD592440000804152D0A44400EA
:10526E0000804164000307000C48F176440000C042
:10527E004000005C440000C04048F176440000C08D
:10528E004000005C440000C04000005C4400000090
:10529E004100005C440000004148F176440000C02B
:1052AE004000005C440000C04048F176440000C05D
:1052BE004000005C440000C04000005C4400000060
:1052CE004100005C4400000041D8047E1D831D8116
:1052DE001DAF1D821D010002040507090B0C0E10E7
:1052EE0011131517181A1C1D1F2123242628292BCC
:1052FE002D2F3032343537393B37909192F6F79760
:10530E00C0C16063646566F1F3C6C73031323334B1
:04531E003567F0F20D
:00000001FF
