:100000000C94EA020C9409030C9409030C94090360
:100010000C9409030C9409030C9409030C94090330
:100020000C9409030C9409030C9407210C943E20B2
:100030000C943F180C9409030C9409030C940903C5
:100040000C9409030C9409030C94F70E0C94090307
:100050000C9409030C94FE170C9409030C940903E7
:100060000C9409030C9409030C9409030C940903E0
:100070000C9409030C9409030C9409030C940903D0
:100080000C9409030C9409030C9409030C940903C0
:100090000C9409030C940903310831086B086B08B0
:1000A000480A480A480A480AC1089F09B009B00925
:1000B0007C167F169716A416AB16CE16601760171F
:1000C000601760176017D116D316D816FB161B17CA
:1000D0001E17211742178F198F19A219A2199819E3
:1000E000A219A219A2198F198F199D19A219A21963
:1000F0009D19561E7D1E16207D1E1620C51EE81E4B
:100100001620D41FE81F07634236B79BD8A71A39B9
:10011000685618AEBAAB558C1D3CB7CC5763BD6D55
:10012000EDFD753EF6177231BF000000803F0800FC
:100130000000BE922449123EABAAAA2ABECDCCCC66
:100140004C3E00000080BEABAAAAAA3E0000000000
:10015000BF000000803F0000000000084178D3BBD2
:100160004387D1133D190E3CC3BD4282AD2B3E687F
:10017000EC8276BED98FE1A93E4C80EFFFBE01C470
:10018000FF7F3F00000000000000000000000000B2
:10019000000000000000000000000000000000005F
:1001A0000000000000000000000000007E0F00D4EE
:1001B000FFFFFFC700000078000000000000000003
:1001C0002A2B2800000000000000000000000000B2
:1001D00000000029000000002C1E342021222434BD
:1001E0002627252E362D3738271E1F20212223248F
:1001F00025263333362E37381F0405060708090A2B
:100200000B0C0D0E0F101112131415161718191AC6
:100210001B1C1D2F3130232D350405060708090A44
:100220000B0C0D0E0F101112131415161718191AA6
:100230001B1C1D2F3130354C000000000000000059
:1002400000000000000000000000000000000000AE
:1002500063000000000000002D00270026002E0093
:10026000300064002A0000000100010001000100CC
:10027000580062000000000012000C00180013007B
:100280002F003200010000005F0060006100560096
:100290005B005900000000000F000E000D0033004D
:1002A00034002800010000005C005D005E00850055
:1002B0005A000000000000000000000000000000E4
:1002C00000000000000000002C0005001D0001518E
:1002D000520001000000000020001E002900210043
:1002E0002200230024002500370019001B00010014
:1002F0003800010000000000140000002B001A006C
:100300000800150017001C0036000600010001005F
:10031000510050000000000004001F0039001600CA
:10032000070009000A000B00100011000000000087
:1003300000004F0000000000E0000000000000008E
:1003400000000000000000000000000000000000AD
:10035000000000000000000000000000000000009D
:10036000000000000000000000000000000000008D
:1003700000000000E5000000000000000000000098
:10038000000000000000000000000000000000006D
:10039000000000000000E10000000000000000007C
:1003A000000000000000000000000000000000004D
:1003B00044000000000000000100010001000100F5
:1003C0000100010001000000010001000100010026
:1003D0004500430000000000010001000100010091
:1003E00001000100005C0000400041004200690083
:1003F0003C003A0000000000010001000100010083
:1004000001000100010000003D003E003F006800C7
:100410003B000000000000000000000000000000A1
:1004200000000000000000000100010001000100C8
:100430000100010000000000010001003500010082
:1004400001000100010001000100010001000100A4
:100450000100010000000000010000000100010097
:100460000100010001000100010001000100010084
:100470000100010000000000010001000100010076
:100480000100010001000100010001000000000066
:10049000000001000000000001000000000000005A
:1004A000000000000000000000000000000000004C
:1004B000000000000000000000000000000000003C
:1004C000000000000000000000000000000000002C
:1004D000000000000100000000000000000000001B
:1004E000000000000000000000000000000000000C
:1004F00000000000000001000660FF0961A1010981
:1005000062150026FF009520750881020963150019
:1005100026FF00952075089102C005010906A1017A
:10052000050719E029E715002501950875018102E5
:100530009501750881010507190029FF150026FF9F
:1005400000950675088100050819012905950575AE
:10055000019102950175039101C009024200020157
:1005600000A0FA09040000010301010009211101A2
:1005700000012240000705810308000A0904010068
:1005800002030000000921110100012222000705D9
:10059000820320000107050303200001120110015E
:1005A0000000000810022B000100010200011203EC
:1005B000320031003000200050006C0075007300E4
:1005C00000000C0341006D00700065007800000021
:1005D0000403090411241FBECFEFD0E2DEBFCDBF5C
:1005E00013E0A0E0B1E0EEEDFEE400E00BBF02C0DE
:1005F00007900D92AE3BB107D9F725E0AEEBB3E023
:1006000001C01D92A236B207E1F70E9462140C9459
:100610006D270C9400003F924F925F926F927F92F1
:100620008F929F92AF92BF92CF92DF92EF92FF9202
:100630000F931F93CF93DF93CDB7DEB7A8970FB675
:10064000F894DEBF0FBECDBFFC0180819181238174
:100650003481232B31F09F3F31F491E08F3F19F427
:1006600003C091E001C090E090FD4FC77F0185E09D
:10067000DE01949601900D928A95E1F7D7011296CA
:100680002C918CA19DA1222349F00E943019182F92
:10069000682F8CA19DA10E94D21903C00E94A619A7
:1006A000182F6CA17DA1812F0E94F40C8C01F70101
:1006B0009281992309F4F5C0980122513F452031D8
:1006C000310508F01DC18FEF97E00E940B238111C7
:1006D000F2C0025156EA852E55E0952E002379F09E
:1006E0008114F8E09F0609F4E6C0C4010E940B23C0
:1006F000811101C001501FEF811A910AEFCF1982B9
:100700001A821B821C82442443944AE0342E8401C2
:100710000F5F1F4FC4010E940B2389831A82882315
:1007200009F4C9C09FEF980F933060F48A8349821F
:1007300022E0820E911CC8010E940B238B83811141
:1007400002C0B9C048018E010F5F1F4FD8012C9124
:100750002223E9F2213009F04FC011968C918130AB
:1007600049F46801B2E0CB0ED11CF80182810E94ED
:10077000ED220BC0823059F46801F2E0CF0ED11C9B
:10078000D80112968C910E94AF22860187C08330D7
:1007900049F46801B2E0CB0ED11CF80182810E94BD
:1007A0005422F3CF843019F00F5F1F4F77C0D80168
:1007B00012962C910E5F1F4F80E090E030E02053A6
:1007C00031092A30310568F4389EA001399E500D58
:1007D0001124C901840F951F0F5F1F4FF80120815D
:1007E000EDCF009709F45AC0AFE9BFE01197F1F7D8
:1007F00000C000000197F5CFE22FF0E0E854FE4F73
:100800005490822F86958695869590E0FC01E85558
:10081000FE4F64902770712C022E02C0759467946D
:100820000A94E2F7B1E06B227724FC01E856FE4F10
:10083000A490B12C022E02C0B594A7940A94E2F7BA
:10084000E1E0AE22BB24FC01E857FE4FC490D12C5E
:1008500002C0D594C7942A95E2F7F1E0CF22DD24B7
:100860006114710419F081EE0E94AF22A114B10449
:1008700019F086EE0E94AF22852D0E94ED22AB2852
:1008800019F086EE0E945422672819F081EE0E942A
:100890005422CD2819F08CE20E94ED220F5F1F4FE9
:1008A00055CF0031FFE51F0709F026C681E00E9401
:1008B0000B1A0E94AC1C8091E704877009F425C6CE
:1008C000D70112968C91882309F41FC682E0A8965E
:1008D0000FB6F894DEBF0FBECDBFDF91CF911F9151
:1008E0000F91FF90EF90DF90CF90BF90AF909F90CF
:1008F0008F907F906F905F904F903F900C94301A44
:100900000031BFE51B0711F481E005C00131EFE5BF
:100910001E0721F482E00E94491ACBCF0D31FCE57D
:100920001F0731F4992309F44EC00E94640DC3CF10
:100930000E312CE5120731F4992309F444C00E94CA
:100940004A0DB9CF0F313CE5130739F49923D9F19A
:100950008091160580FDF3CFE8CF0A325CE51507DC
:1009600049F4992381F11092180564E070E080E069
:1009700091E024C00B328CE5180799F306322CE580
:100980001207F9F00732ACE51A0709F4F4C008328F
:10099000BCE51B0709F4E5C00C32ECE51E0709F4C1
:1009A000F0C00D32FCE51F0709F0F1C0992359F0A2
:1009B0001092D70368E070E080E291E00E94F71C9B
:1009C0007ACF9111D5C04091D803411105C08091D3
:1009D000D703882309F405C1992309F44BC0003ECD
:1009E000110561F40E943A0D81E08093D6031092C4
:1009F000D5031092D4031092D3035DCF023E1105AC
:100A000071F40E943A0D8091D603882319F081E099
:100A10008093D5031092D6031092D4034CCF033E9B
:100A2000110591F48091D503882321F10E943A0D9C
:100A30001092D60381E08093D4031092D2031092D7
:100A4000D1031092D00337CF0235110531F48091D4
:100A50000102909102020A9708C00135110551F474
:100A600080910102909102020A9690930202809373
:100A7000010221CF8091000281110DC0D701119692
:100A80008C9111972BE030E0281B31098C91805F0D
:100A9000D82EBCE01DC0813069F4F70181812BE0C4
:100AA00030E0281B3109D22EDD0CDD0CD20E808106
:100AB0008D5C31C0823081F4D70111968C911197F1
:100AC0002BE030E0281B31098C918D5CD82EB7E0EB
:100AD0002B9FD00C112423C08330F9F483E2EFE77D
:100AE000F3E0DE01119601900D928A95E1F7F7018E
:100AF0008081FE01E80FF11DD70111968C912BE04A
:100B000030E0281B3109D0848D2DBCE02B9F800D57
:100B1000112439E0D32ED80E02C02CE0D22E992316
:100B2000A1F0442319F08D2D0E94CF108091D6039F
:100B3000882391F08091D303E82FF0E0E054FC4F3C
:100B4000D0828F5F8093D30307C0442329F08D2D7B
:100B50000E94B0100E947C0E0F3F110508F041C0AA
:100B6000AACE992309F42FCF8091D803811106C012
:100B70000E940A0DA0CE992309F425CF0E94400DB2
:100B80009ACE992309F41FCF0E94010D94CE0E3204
:100B90002CE5120741F4992309F415CF8091D7036E
:100BA000811106CFF1CF09323CE5130709F00BCFD5
:100BB000992309F408CF0E943A0D2091000230E0F9
:100BC0002F5F3F4F237033272093000248E2429F5C
:100BD000C001439F900D112465E070E0805A9E4F44
:100BE000EDCE033F3CE5130799F406E221EE40EE1B
:100BF00063EF7CE509C0073DACE51A0711F506E295
:100C000021EE41EE67ED7CE5C7010E94120C53CE48
:100C1000043F5CE5150708F069C1083D8CE518073D
:100C200031F407E225EE45EE68ED7CE5EDCF093DB8
:100C30009CE5190701F708E221E045EE69ED7CE546
:100C4000E3CFF7018281882309F485C11092D9038B
:100C50000230FCE51F0708F468C106312CE51207D5
:100C600038F098012A5F3C452930310508F05DC114
:100C70000E948218909303048093020400313CE5A3
:100C8000130709F4CAC008F042C008308CE5180701
:100C900009F4A0C0F0F40430ACE51A0709F486C0EA
:100CA00068F40230ECE51E0709F47CC003301C45F3
:100CB00009F00CC18091020482607BC006302CE5F3
:100CC000120709F47FC008F081C080910204886097
:100CD00070C00C305CE5150709F48BC068F40A306D
:100CE0009CE5190709F47AC008F07FC00E949D1C9A
:100CF0008091020480685DC00E30BCE51B0709F4DA
:100D00007CC008F086C0809102048B7F52C00B3FEC
:100D1000FCE51F0709F450C020F503313CE513073B
:100D200009F483C078F401318CE5180709F479C01F
:100D300002311C4509F0CAC00E949D1C809102042A
:100D40008F7737C00531ACE51A0709F47CC008F489
:100D5000ACC00A3F1C4509F0B9C080910304816012
:100D60002EC00F3FFCE51F0709F466C070F40D3F6D
:100D70003CE5130709F449C008F443C0809103041B
:100D8000826081608093030484C001308DE5180780
:100D900009F497C008F470C002301D4509F096C0F0
:100DA00060E090C080910204816003C080910204E1
:100DB0008460809302048AC08091030482608093DF
:100DC000030484C0809102048061F3CF8091020407
:100DD0008062EFCF809102048064EBCF80910204A7
:100DE00088608460809302043DC0809102048E7FFD
:100DF000E0CF809102048D7FDCCF80910204877F59
:100E0000D8CF809103048E7FDACF809103048D7F49
:100E1000D6CF809102048F7ECCCF809102048F7D4B
:100E2000C8CF809102048F7BC4CF80910204877F5A
:100E30008B7F809302041BC0809103048D7F8E7F83
:100E4000809303042BC08091020482FB222720F9A7
:100E500091E0922790FB82F990FB83F98093020442
:100E6000992329F064E070E083E492E01BC062E023
:100E700070E083E192E016C080910304982F909572
:100E800091708E7F892B90FB81F9809303049923C5
:100E900029F064E070E083E292E004C062E070E078
:100EA00083E092E00E94F71C11C00E949D1C80917B
:100EB000020487FB222720F991E0922790FB87F913
:100EC00078CF61E08EE090E00E94192360910204E7
:100ED0001091030484E090E00E941923612F81E2C5
:100EE00090E00E9419230E949D1CE5CC053FBCE5C3
:100EF0001B0731F406E221EE42EE65EF7CE584CE7D
:100F0000053FECE51E0730F407E225EE44EE64EF02
:100F10007CE57ACE063FFCE51F0709F092CE07E29A
:100F200025EE46EE66EF7CE56FCE06312CE5120726
:100F300051F58091EA048A7A91E009F490E0909367
:100F4000DA03882311F065E301C069E289E394E0E4
:100F50000E94681815C006311C45F1F58091DA032E
:100F6000882309F4D0C285E3E9E3F4E02FE334E019
:100F70009281891301C0128231962E173F07C1F763
:100F80000E94031998CC0115BCE51B0731F00E3DFA
:100F90001C4511F50E9493188ECC0E949D1C0E9446
:100FA0003A0D0E9433188C0163E070E083E692E012
:100FB0000E94F71CC8010E9424188A3F910538F44A
:100FC0008FE99FE00197F1F700C00000F3CF0E9486
:100FD000130D0E94CC176FCCD7010D911C91882363
:100FE00049F0C8010E943019D82E682FC8010E940C
:100FF000D21904C0C8010E94A619D82EB8018D2D9F
:101000000E9410128C01982EF701A280B580B29434
:101010009FE0B9228091E704877099F0AA2089F0B7
:10102000812F807F803421F080E2800F883048F06B
:1010300082E00E94301A8091E7048770DD24D39407
:101040008111D12CC12EC2948FE0C8228C2D90E04A
:101050008C30910508F01CC2FC01E45BFF4F0C943E
:101060004927812F807F1F70882311F01295107FF0
:10107000AA20B9F0112309F4F6C180E2800F88306C
:1010800010F0911006C08091EA04182B1093EA0426
:1010900005C08091E904182B1093E9040E940319FC
:1010A000E2C1802F0E945422112309F4F1C1005E95
:1010B0001095083010F0911006C08091EA041823B2
:1010C0001093EA0405C08091E90418231093E90401
:1010D0000E940319DDC1812F807F1F70803211F0C3
:1010E0001295107F992021F0F1E09F16E1F02AC0BF
:1010F000AA2081F08091EB04BB2051F001E0B012F6
:1011000007C0182B181709F4C3C11093EB04C0C112
:10111000812B10C0BB2021F021E0B21609F4B8C128
:101120000E94FD182AC0AA2041F035E03B1508F4C2
:10113000AFC1812F0E944A22ABC154E05B1508F475
:10114000A7C11BC0AA2061F0BB2099F3D701159657
:101150008C91159780FF87C18F7015968C93E9CF7E
:10116000BB2059F0093309F090C1BFEFE7EEF3E07F
:10117000B150E040F040E1F786C1812F0E943F224C
:1011800087C1812F837009F069C0A11085C1902F9C
:10119000929596959770990F990F802F8F70882E42
:1011A000912CA12CB12C092E04C0880C991CAA1CCE
:1011B000BB1C0A94D2F704FF12C04FE050E060E07D
:1011C00070E004C0440F551F661F771F9A95D2F731
:1011D000DB01CA0180959095A095B09503C080E091
:1011E00090E0DC0116951695412F4370423019F1BD
:1011F000C8F40091EC041091ED042091EE043091BC
:10120000EF04413059F088299929AA29BB29BC014A
:10121000CD0160237123822393230AC0802A912A5F
:10122000A22AB32ABC01CD01682979298A299B29E0
:101230000E946A1A31C188299929AA29BB290091DB
:10124000EC041091ED042091EE043091EF04BC0108
:10125000CD016027712782279327EACFAA2019F0B2
:10126000812F817001C08695882309F415C1902FC4
:10127000929596959770990F990F802F8F70882E61
:10128000912CA12CB12C092E04C0880C991CAA1CED
:10129000BB1C0A94D2F704FF12C04FE050E060E09C
:1012A00070E004C0440F551F661F771F9A95D2F750
:1012B000DB01CA0180959095A095B09503C080E0B0
:1012C00090E0DC0116951695412F43704230D9F01D
:1012D00068F500915A0510915B0520915C053091ED
:1012E0005D05413059F088299929AA29BB29BC01FB
:1012F000CD0160237123822393231EC0802A912A6B
:10130000A22AB32A13C088299929AA29BB290091A6
:101310005A0510915B0520915C0530915D05BC017B
:10132000CD01602771278227932706C0BC01CD011C
:10133000682979298A299B290E94FD19ADC01F704F
:10134000AA2039F0812F0E94491A802F0E944A2238
:10135000A3C0802F0E943F22812F0E940B1A9CC0A5
:10136000802F22EF921609F440C0291538F030EF93
:10137000931661F051EF951699F170C093EF99169D
:10138000D9F1A4EF9A1609F44EC068C0AA2019F149
:10139000B4E0BB1508F47CC01F7181E090E0A0E0D0
:1013A000B0E0AC01BD0104C0440F551F661F771F9C
:1013B0001A95D2F780915A0590915B05A0915C0532
:1013C000B0915D058A019B01082719272A273B2731
:1013D000C901B80121C025E02B1508F459C0DCCFA4
:1013E000AA2029F0812F8F712CC0AA20D9F3812F38
:1013F0008F710E940B1A4CC0AA2089F01F7181E0E6
:1014000090E0A0E0B0E0BC01CD0104C0660F771F02
:10141000881F991F1A95D2F70E94FD1939C060E004
:1014200070E0CB01F9CFAA2079F01F71812F0E94C3
:10143000491A38E0139FC001112483608093E704A8
:10144000812F0E94491A24C081E00E94301A51E085
:101450005B15F0F482E00E94301A1AC0AA2039F01D
:10146000BB2009F4BFCF802F0E94AF2211C0BB2048
:1014700009F4BDCF893349F48FEF97EEA3E0815093
:101480009040A040E1F700C00000802F0E9454224D
:1014900088EF8C0D843010F40E94060CDD20A9F139
:1014A0008091E70480FD31C0F70112828595859512
:1014B00085950E94491AC7010E940B038091E70499
:1014C000859585958595A8960FB6F894DEBF0FBED5
:1014D000CDBFDF91CF911F910F91FF90EF90DF90E3
:1014E000CF90BF90AF909F908F907F906F905F90C4
:1014F0004F903F900C940B1A01312FE5120709F021
:101500000DCA82E0D4C989E22FCDA8960FB6F8940F
:10151000DEBF0FBECDBFDF91CF911F910F91FF9026
:10152000EF90DF90CF90BF90AF909F908F907F9083
:101530006F905F904F903F900895EFE6F0E08081CC
:101540008B7F8083E0E8F0E080818F7C808308954A
:10155000CF92DF92EF92FF926B017C0120E030E0AE
:10156000A9010E947E23811106C0809180008F7C9A
:101570008093800039C080918000806280938000D9
:10158000C092E203D092E303E092E403F092E50319
:1015900020E030E040E051E4C701B6010E94D624CB
:1015A0009B01AC0160E074E284E79BE40E9483232A
:1015B0006B017C010E94F523709387006093860085
:1015C00020E030E048E452E4C701B6010E94D6248E
:1015D00020E030E048EC52E40E9483230E94F5238F
:1015E00070938B0060938A00FF90EF90DF90CF9014
:1015F00008959091020492FF0DC0282F2871283081
:1016000019F4877F846006C0282F2471243011F4D8
:101610008B7F886093FF0DC0282F2871283119F423
:10162000877E846106C0282F2471243111F48B7EBB
:1016300088612091030420FF0DC0382F38713830A5
:1016400019F4877F816006C0382F3171313011F471
:101650008E7F886021FF0DC0282F2871283119F452
:10166000877E816106C0282F2171213111F48E7E81
:10167000886194FD877E08951F93CF93DF93CDB744
:10168000DEB767970FB6F894DEBF0FBECDBF342F1D
:101690004B8B252F5C8B6D8B7E8B8F8B4E895F895F
:1016A00061111092E90486E0FE013D96DF01982F5A
:1016B0001D929A95E9F73D872E876F87598B488B46
:1016C000DE01179601900D928A95E1F7CE010796FB
:1016D0000E94EE1A81113EC086E0FE013796DE01BF
:1016E000119601900D928A95E1F7FF81E8856A8550
:1016F0007B856115710531F0EF3F31F481E0FF3FEB
:1017000019F403C081E001C080E080FD23C0209176
:10171000470430E0C9010196877099274091780409
:1017200050E08417950779F1F983EA837D836C8310
:1017300096E0929FD001939FB00D1124A85BBB4F00
:10174000FE01319601900D929A95E1F7809347043E
:101750000E94781A16E080917804909147048917C6
:10176000F9F0189FC0011124885B9B4F0E94EE1A6C
:101770008823B1F08091780490E0019687709927D2
:1017800080937804E8CF0E949D1C10924704109229
:101790007804E1E4F4E086E0DF011D928A95E9F740
:1017A00067960FB6F894DEBF0FBECDBFDF91CF9125
:1017B0001F910895CF93DF9390E1899FD001112469
:1017C00020E030E080E090E0C1E0D0E0F901EA0FF5
:1017D000FB1FEE0FFF1FE85CFD4FE491EE2371F05D
:1017E000AE01022E02C0440F551F0A94E2F7FA011F
:1017F000E623F723EF2B11F0842B952B2F5F3F4F20
:101800002031310519F7DF91CF910895E09104045B
:10181000F0910504309721F00190F081E02D0994BA
:1018200080E008950F931F93CF93DF93C42FD22F9F
:10183000FC0182818823C9F04093D9030E943318A8
:101840009093EB038093EA0380E28C0F883008F0DA
:1018500057C0C77081E001C0880FCA95EAF7DF91D1
:10186000CF911F910F910C944A228091D903481374
:1018700030C08091EA039091EB030E942418883CC9
:10188000910538F510E21D0FCD17B9F080E28C0FED
:10189000883040F4C77081E001C0880FCA95EAF72C
:1018A0000E943F22183028F581E09D2F977001C0DB
:1018B000880F9A95EAF70E944A22802F0E94ED2213
:1018C0001830F0F4D77081E001C0880FDA95EAF79C
:1018D0000AC080E28C0F883098F4C77081E001C0A4
:1018E000880FCA95EAF7DF91CF911F910F910C9461
:1018F0003F22802FDF91CF911F910F910C94ED2209
:10190000DF91CF911F910F910895CF93DF93C6EA96
:10191000D5E060E0CE010E9419232196C11588E030
:10192000D807B9F7DF91CF910895CF92DF92EF9268
:10193000FF920F931F93CF93DF93C0E0D0E08E010F
:10194000005A1E4F6E0180E2C80ED11CFE01E85CF9
:10195000FD4FE590F4906F2DCE0186960E941923DD
:101960006E2DCE0187960E9419232296CC15DD0597
:1019700069F70C171D0731F7E80100381540F9F633
:10198000DF91CF911F910F91FF90EF90DF90CF905B
:1019900008950F931F93CF93DF9350E0440F551F8B
:1019A00020E2629F400D511D112420E631E0682F96
:1019B000629FC001639F900D11248A01080F191FB7
:1019C000C80186960E940B23C82FD0E0DC2FCC27BD
:1019D000C80187960E940B239E01282BC901DF9125
:1019E000CF911F910F910895462F843038F47B30AA
:1019F00028F4603118F4672F0C94C90C80E090E053
:101A0000089581E08093D70368E070E084E393E079
:101A10000C94F71C81E08093D80368E070E084EBBD
:101A200092E00C94F71C8091B302811122C01092B5
:101A300059050E949D0A10921305109214051092E8
:101A4000080510920705E9E1F5E080E090E0A0E8E4
:101A5000BFEB1182108282839383A483B5831782A4
:101A60001682389625E0E935F20799F781E08093F0
:101A7000B30208958091D80381110C94130D089539
:101A80000E943A0D1092D80368E070E084EF92E073
:101A90000C94F71C62E070E083EA92E00E94F71C6D
:101AA0002FEF81EE94E0215080409040E1F700C09C
:101AB00000000E94130D609116056E7F609316055D
:101AC00087E090E00C9419236091160561606093A3
:101AD000160587E090E00E94192362E070E083E938
:101AE00092E00C94F71C80911505811134C080E0C0
:101AF00090E00E9413238B3E9E4F11F00E9493189A
:101B000087E090E00E940B2380931605E9E1F5E061
:101B100080E090E0A0E8BFEB118210828283938383
:101B2000A483B58317821682389625E0E935F2073B
:101B300099F78091150581110CC00E949D0A269A83
:101B400082E0809380008AE18093810081E080932D
:101B500015050C94130D08957F928F929F92AF926A
:101B6000BF92CF92DF92EF92FF920F931F93CF938A
:101B7000DF934B015C016A018091160580FFAEC0C6
:101B800080911505811102C00E94730D20E030E0A4
:101B9000A901C501B4010E947E2387FF04C0B7FAE2
:101BA000B094B7F8B09470905905072D10E0E80193
:101BB000219743E0000F111F4A95E1F7E12CF12C2A
:101BC000CF3FFFEFDF07D9F128E0E21AF108F80173
:101BD000EE0DFF1DE75EFA4F22813381448155816E
:101BE000C501B4010E947E23811127C08E0133E01C
:101BF000000F111F3A95E1F7075E1A4F80915905C2
:101C000090E00197C817D9070CF068C0219688E0CA
:101C1000F8013896D80101900D928A95E1F70E945B
:101C20003318F8019187808782869386A486B586CB
:101C3000D786C686085F1F4FE1CF2197C1CF81E0CD
:101C4000870D893020F58093590581E08093E10369
:101C500080931405C0915905D0E021970E94331854
:101C6000FE0123E0EE0FFF1F2A95E1F7E75EFA4F32
:101C70009183808382829382A482B582D782C68236
:101C80000E9433188091B302882341F113C088E089
:101C90008093590589E195E028E0FC013896DC0144
:101CA00001900D922A95E1F7089625E0813592077B
:101CB00099F7CBCF80916F00846080936F00809103
:101CC000800080628093800080911405882321F039
:101CD0000E94CA1C0E94A80A1092B302DF91CF9101
:101CE0001F910F91FF90EF90DF90CF90BF90AF903A
:101CF0009F908F907F900895CF92DF92EF92FF9206
:101D00000F931F93CF93DF936B017C0120E030E0B2
:101D1000A9010E947E2387FF04C0F7FAF094F7F828
:101D2000F09480911405882309F458C0809115051A
:101D3000811102C00E94730D09E115E0C7E0D0E0F7
:101D4000F80122AD33AD44AD55ADC701B6010E94D7
:101D50007E2381112BC083E0CC0FDD1F8A95E1F734
:101D6000C75EDA4F1982188280E090E0A0E8BFEBEE
:101D70008A839B83AC83BD831F821E82AC01BD011D
:101D8000F5E0C135DF07D1F088E0FE013896DE01CD
:101D900001900D928A95E1F7198618864A875B872C
:101DA0006C877D871F861E862896EACF219708506C
:101DB0001109CF3F8FEFD80719F610C0C1E0C093CB
:101DC000E10380915905815080935905811106C026
:101DD0000E949D0AC093B30210921405DF91CF9127
:101DE0001F910F91FF90EF90DF90CF9008951F9279
:101DF0000F920FB60F9211240BB60F924F925F9273
:101E00006F927F92AF92BF92CF92DF92EF92FF924A
:101E10000F931F932F933F934F935F936F937F93F2
:101E20008F939F93AF93BF93CF93DF93EF93FF93E2
:101E30008091E6039091E703A091E803B091E90354
:101E40000196A11DB11D8093E6039093E703A09333
:101E5000E803B093E9036091E6037091E703809192
:101E6000E8039091E9030E9424246B017C0120E0A7
:101E700030E040E85CE36091E2037091E30380911D
:101E8000E4039091E5030E94D6249B01AC01C701B5
:101E9000B6010E947E2387FD42C11092E603109294
:101EA000E7031092E8031092E90380911405811171
:101EB00005C0C0911305CC2309F420C10E9433183A
:101EC000EC0180911305811102C010E0E3C0809104
:101ED000090590910A050E94241820910705309168
:101EE00008058217930788F38091090590910A05E8
:101EF0000E94241820910705309108057C01E21A00
:101F0000F30AD0930A05C093090500910B051091BF
:101F10000C05C801019690930C0580930B050E9457
:101F20003318A0900E05B0900F0580910B0590918D
:101F30000C058A159B0560F0C0910D05CC2329F096
:101F400010920C0510920B0503C00E94130DD6C011
:101F500080911205C0910B05D0910C05C090100521
:101F6000D0901105811131C0F80153E0EE0FFF1F31
:101F70005A95E1F7EC0DFD1DDE0163E0AA0FBB1FD2
:101F80006A95E1F7AC0DBD1D2D913D914D915C9190
:101F900060817181828193810E947E23811115C0AD
:101FA00081E0809312054FE050E060E070E0CB01EB
:101FB0000E94AC0D10930C0500930B058FE090E090
:101FC000909308058093070564C0109212058E0156
:101FD00033E0000F111F3A95E1F70C0D1D1DF801BC
:101FE00064817581868197810E94F5239B01A0E61B
:101FF000BAEE0E946F2320E03EE140E050E00E94F4
:102000004D23F1E0AF1AB108412C4EE1542E612C62
:10201000712C2E153F0550F0D0930C05C0930B0585
:10202000E216F306E0F0C1E0D0E01CC0085F1F4FED
:10203000CA15DB0588F7E21AF30A2196F8016481D4
:102040007581868197810E94F5239B01A0E6BAEEF7
:102050000E946F23A30192010E944D23DACFE90170
:10206000CE19DF0980910B0590910C0523E0880FB4
:10207000991F2A95E1F7F601E80FF91F6081718138
:1020800082819381AE010E94AC0DD0930805C0936C
:10209000070511E080911405882341F1809117050F
:1020A000811111E0C9E1D5E0E12CF12C80915905B5
:1020B00090E0E816F906D4F48E819F8101978E3F57
:1020C0009F4F78F4888199810E9424182E813F8146
:1020D0008217930730F06A817B818C819D810E94F9
:1020E0007C0E2FEFE21AF20A2896E0CFC091E103AE
:1020F000CC2319F01092E10301C0C12F8091140587
:10210000811107C080911305811103C00E949D0AAF
:1021100006C0CC2321F00E94CA1C0E94A80AFF918D
:10212000EF91DF91CF91BF91AF919F918F917F916F
:102130006F915F914F913F912F911F910F91FF9060
:10214000EF90DF90CF90BF90AF907F906F905F90B7
:102150004F900F900BBE0F900FBE0F901F901895D1
:10216000682F70E065547109072E000C880B990BDD
:102170000E94262420E030E040E451E40E948323C2
:102180009B01AC0160E070E080E090E40E94432598
:1021900020E030E04CED53E40E94D62408950E94E4
:1021A000B0104FEF5FEF0C94AC0DF894E82FE29570
:1021B000EF70F0E031A1282F2F7081E090E001C096
:1021C000880F2A95EAF7982F9095932391A392A1CF
:1021D000892B82A3789408957F928F929F92AF92D9
:1021E000BF92CF92DF92EF92FF920F931F93CF9304
:1021F000DF938CEEA82E83E0B82E92EAE92E93E0CE
:10220000F92E8501C0E0D0E0712C88248394912CB4
:10221000A701D7018C91F894E82FE295EF70F0E0D8
:1022200021A18F70B40102C0660F771F8A95E2F773
:10223000CB01922F982B91A392A18095892382A301
:10224000789400C0EDEAF3E020E030E0C12CD12C1E
:102250006191A62FA295AF70B0E090968C9190E01E
:102260006F7002C0959587956A95E2F780FD08C06A
:10227000C401022E02C0880F991F0A94E2F702C01F
:1022800080E090E0C82AD92A2F5F3F4F20313105E6
:10229000F9F67FEFE71AF70ADA018C910E94D51060
:1022A000CA30D10519F0B0EABA95F1F7F80180818A
:1022B0009181C816D90621F0D182C08281E001C087
:1022C00080E0782A21960E5F1F4FCB30D10509F0B0
:1022D0009FCF772049F081E08093DD030E9433187F
:1022E0009093DC038093DB038091DD038823B9F0B6
:1022F0008091DB039091DC030E942418069778F00C
:10230000E7E0F4E082E094E0D5012D913D915D019C
:10231000219331938A179B07B9F71092DD038091BF
:10232000E003811125C08091DE039091DF030097C7
:1023300039F40E9433189093DF038093DE0318C0B2
:102340000E9424188D32914098F08091160580FFEC
:1023500006C063E070E08BE792E00E94F71C0E94E9
:10236000331890930A058093090581E08093E00378
:102370008091D403882309F444C08091D0039091C4
:10238000D103009781F40E9433189093D103809376
:10239000D0032091D20330E02115310571F48091F2
:1023A000D30390E00BC00E942418209101023091C9
:1023B00002022817390738F324C0C9010197F9012F
:1023C000E054FC4FC0812091D803222341F0FC014E
:1023D000E054FC4F80810E94B0100E947C0E8091DE
:1023E000D803882319F08C2F0E94CF108091D2033C
:1023F00090E001966091D30370E00E9435278093AE
:10240000D203872DDF91CF911F910F91FF90EF9015
:10241000DF90CF90BF90AF909F908F907F90089566
:10242000CF93DF930E94F40CEC018238910559F1AF
:10243000A0F48133910509F473C040F48932910509
:1024400009F467C08A9709F472C078C08533910592
:1024500009F458C0C997B9F071C0833E910571F174
:1024600038F4803E9105B1F0823E910511F166C0CD
:10247000863E9105B9F1873E9105C9F1843E9105EB
:1024800009F05CC024C08091020480FD33C181FD4D
:1024900031C154C08091020480FD26C180910304A3
:1024A00080FF2DC18091020484FD1BC1C3EED0E0EA
:1024B00026C18091020482FF22C1F4CF80910204E0
:1024C00082FD15C18091030480FD14C1EBCF809182
:1024D000030481FF14C18091020484FD02C1C7EE90
:1024E000D0E00DC18091020483FF09C1F4CF809137
:1024F000020483FD02C18091030481FFECCFC4EE8E
:10250000D0E0FDC08091020485FFF9C0C9E2D0E0AF
:10251000F6C08091020485FFF2C0C5E3D0E0EFC0B1
:102520008091020486FFEBC0CAE2D0E0E8C080914F
:10253000020486FFE4C0C1E3D0E0E1C0C11523E599
:10254000D20798F5C11542E5D40708F095C0C1152A
:1025500080E2D807C0F4C11521E0D20708F0CFC04F
:10256000C53AD10548F4C430D10508F0C8C0C1301F
:10257000D10509F4C4C0B5C0CE01805E91090897A9
:1025800008F0AFC0BCC0C11541E5D40708F06FC06A
:10259000C11580E5D80708F04EC0C11520E4D20768
:1025A00008F49FC0DF70D06AAAC0C11546E5D40701
:1025B00000F5C11585E5D80708F079C0C11524E5F7
:1025C000D20708F06FC0CE018370992721E030E078
:1025D00002C0220F331F8A95E2F78C2F86958695CD
:1025E00040E2849FC0011124E901C82BD92BDA688D
:1025F00086C0C1154AE5D40778F4C11589E5D80726
:1026000008F05FC0C11528E5D20708F46AC0DC2FC6
:10261000CC27C06FD06A73C0CE019056811590420E
:1026200008F05FC08D2F8F710E94F90ADD27D062FC
:102630008F71D82B64C0CE0174E0969587957A95FA
:10264000E1F783709C2F937021E030E002C0220FED
:10265000331F9A95E2F73C68382BCF70C695C69524
:1026600080E2C89FE0011124C22BD32B48C0DC2F8D
:10267000CC27C16FD06A43C0CE018370992721E077
:1026800030E002C0220F331F8A95E2F78C2F869527
:10269000869540E2849FC0011124E901C82BD92B03
:1026A000DC682DC0DC2FCC27C46FD06A28C08C2FEB
:1026B0000E94F90A8F71C82FD0E0DC2FCC27D0629E
:1026C0001EC08C2F8F700E94F90A94E0D695C79592
:1026D0009A95E1F7CF70D0E0DC2FCC27D069C82BDA
:1026E0000EC0C0E0D0E00BC0C9E3D0E008C0C2EE2D
:1026F000D0E005C0C0EED0E002C0C6EED0E0CE0112
:10270000DF91CF910895089508950895CF93DF93B1
:1027100021E02093E9002FEF3091E800215035FDB2
:1027200006C035ED3A95F1F700002111F5CF209163
:10273000E80025FF14C0EC0140E050E068E070E0E4
:102740000E9413228091E8008E778093E80088E051
:10275000FE01A3EFB4E001900D928A95E1F7DF91BD
:10276000CF9108958091FF0487FF11C08091E80008
:1027700082FD05C08091FD048111F8CF11C08091C8
:10278000E8008B770BC08091FD04882349F080918D
:10279000E80080FFF8CF8091E8008E778093E80012
:1027A0000895982F973068F59093E900981739F0BD
:1027B0007091EC002091ED005091F00003C0242FA7
:1027C000762F50E021FD02C09F5FECCF3091EB00EF
:1027D0003E7F3093EB003091ED003D7F3093ED0074
:1027E0003091EB0031603093EB007093EC0020935C
:1027F000ED005093F0002091EE0027FDE5CF80E042
:1028000008958F708093E90081E008952091050577
:10281000309106052617370748F06115710539F420
:102820002091E8002E772093E80001C0B901FC0157
:1028300020E06115710569F18091FD048823E1F1C3
:102840008530E1F18091E80083FD3AC08091E80095
:1028500082FD2CC08091E80080FFEBCF8091F200D8
:102860009091F3006115710551F08830910538F4AD
:1028700021912093F100615071090196F3CF21E07D
:10288000089709F020E08091E8008E778093E800B7
:10289000D0CF2111D1CF0AC08091FD04882361F0EF
:1028A000853061F08091E80083FD0AC08091E800E6
:1028B00082FFF2CF80E0089582E0089583E00895DA
:1028C00081E00895CF93DF93CDB7DEB7AC970FB615
:1028D000F894DEBF0FBECDBF84B7877F84BF0FB62D
:1028E000F894A895809160008861809360001092B0
:1028F00060000FBE90E080E80FB6F894809361000E
:10290000909361000FBE85B7806885BF85B78068EA
:1029100085BF8AEC97E19093BF038093BE030E942A
:1029200086200E94A5208091E20084608093E200CE
:1029300078948091FD048823A1F01091E9001F7024
:102940009091EC00892F817090FD80E8182B1092F7
:10295000E9008091E80083FD0E94731D1F701093B1
:10296000E90082E084BD93E095BD9AEF97BD809326
:102970006E0002EA13E0F80181918F010E94D510E8
:10298000F3E00D3A1F07B9F70DEA13E0F801819162
:102990008F010E94D510F3E00D3B1F07B9F7ECEE55
:1029A000F3E0A7E0B4E0119211921D921D9224E091
:1029B000E230F207C1F70E94EC108FE39CE9019727
:1029C000F1F700C000000E94EC108091110482FF1A
:1029D00017C06FEF82E290E00E9419236FEF83E24D
:1029E00090E00E9419236FEF84E290E00E94192387
:1029F0006FEF7FEF80E090E00E9437230E94CC17BA
:102A000080E090E00E9413238B3E9E4F11F00E94C5
:102A100093180E94730D82E290E00E940B23813292
:102A200081F483E290E00E940B23893051F484E228
:102A300090E00E940B2391E0863109F090E0892F0D
:102A400001C080E080FF8AC280E090E00E941323F2
:102A50008B3E9E4F11F00E94931882E090E00E94FE
:102A60000B2380931E040E9482189093030480938A
:102A7000020483E090E00E940B23682F70E080E066
:102A800090E00E946A1A84E793E090930504809393
:102A90000404CE0101967C018091FD04853009F08B
:102AA00046C08091FD04853009F03DC08091FD0451
:102AB000843031F10E94130D10920604E8E1F0E039
:102AC00020E40FB6F894A895E09360000FBE209321
:102AD000600083B7817F846083BF83B7816083BFD9
:102AE0007894889583B78E7F83BF0FB6F894A895A6
:102AF00080916000886180936000109260000FBE3A
:102B00008091FC04882309F4CCCF0E94EC10E7E00C
:102B1000F4E081919191892B09F0FAC184E0ED31C3
:102B2000F807B9F7BECF0E949D1C0E94060C0E94B8
:102B3000EC10882359F08FB7F894409135045091E8
:102B4000360460913704709138048FBF5FE1452EE1
:102B500054E0552EE7E0F4E0FCA7EBA700E010E01E
:102B6000202EEBA5FCA5C190D190FCA7EBA7F2010C
:102B7000619071902F016C247D2461147104B1F473
:102B80000F5F1F4F0B30110559F78FEF8EA38FA3E7
:102B900018A60E9433188160782F9AA789A74EA1A2
:102BA0005FA168A58AA50E943C0B55C0B601802F85
:102BB0000E94DA0B5C0101978A219B21892B09F481
:102BC000BFC147E0842E44E0942E312C231008C06E
:102BD0003394F2E08F0E911C2BE03212F7CFB0C18C
:102BE000F40160817181832D0E94DA0B8A219B217F
:102BF0009C012150310982239323892B49F3C0CFB3
:102C00008F5FAA0CBB1C803109F4BACF9501262135
:102C10003721232BA9F389A32AA2CA20DB2081E034
:102C2000CD2809F480E08BA30E9433188160782FAF
:102C30009DA38CA349A15AA16BA18DA10E943C0B1D
:102C4000000F111FF801E15EFB4F80819181A826E2
:102C5000B926B182A0820E94060C90911D048917AA
:102C600021F00E94060C80931D048091FD048430A5
:102C700009F012CF83E08093E9008091E80082FFA1
:102C80000BCF8091E80085FF21C00E94E0218111D7
:102C90001BC000E210E0CE0101966C0108C08091DB
:102CA000F100F60181936F010150110969F08091E3
:102CB000E80085FDF4CF8091E8008B778093E800F1
:102CC0000E94E021882399F391E001C090E0809177
:102CD000E8008B778093E800992309F4DDCEE98141
:102CE0008E2F90E0FC013197E331F10508F0E8C048
:102CF000E85AFF4F0C9449271A8289E057C08A810D
:102D0000823009F422C1833009F4DCC0813009F03B
:102D1000D7C02FB7F8948091350490913604A091D4
:102D20003704B09138042FBFBB83AC8312C08A81B3
:102D3000823009F0C5C06B817C818D819E810E94AB
:102D4000522785E290E027C04C816B818A810E94E6
:102D5000C90C9D8301C1CD80DE80DC24CD24DC2420
:102D60008C819B814A8120E631E0429F8001439F14
:102D7000100D1124F0E29F9F000D111D1124080F6A
:102D8000111D080F111D6D2DC80186960E94192373
:102D90006C2DC80187960E94192394C00E94950C3F
:102DA00091C080E14CC082E08A838AE58B838AC02F
:102DB0000A811B81102701271027CC80D12C5701B5
:102DC000C8018A559A4F95012E193F092C153D05CA
:102DD00008F078C00A3522E0120728F40E940B237D
:102DE000F501848302C0F50114820F5F1F4FFFEFCE
:102DF000AF1ABF0AE5CF0A811B81102701271027D0
:102E0000CC80D12C5701C8018A559A4F95012E19B3
:102E10003F092C153D0508F055C00A3522E0120780
:102E200020F4F50164810E9419230F5F1F4FFFEF0B
:102E3000AF1ABF0AE8CF0E94850C44C084E08A83A1
:102E400041C00A811B81102701271027CC80D12C7B
:102E50005701C801869695012E193F092C153D058D
:102E600088F5003825E0120728F40E940B23F501AD
:102E7000848302C0F50114820F5F1F4FFFEFAF1A6A
:102E8000BF0AE7CF0A811B81102701271027CC80BA
:102E9000D12C5701C801869695012E193F092C1592
:102EA0003D0580F4003825E0120720F4F501648127
:102EB0000E9419230F5F1F4FFFEFAF1ABF0AEACF1F
:102EC0008FEF89838091FD04843009F0E5CD109166
:102ED000E9001F709091EC00892F817090FD80E8CF
:102EE000182B82E08093E9008091E80080FF0CC0FD
:102EF00040E050E060E270E0C7010E941322809140
:102F0000E8008E778093E8001F701093E900C4CD2D
:102F100024E129BD86E189BD09B400FEFDCF809181
:102F2000D8008F7D8093D8008091E00082608093EC
:102F3000E0008091E00081FDFCCF0E949D1CB1CD9E
:102F400080E0AA24A394B12C61CE85E290E00E9497
:102F50000B231B821C821D828E83B4CF60E085E22E
:102F600090E00E9419230E94950C0E94850C61E25A
:102F700082E290E00E94192369E083E290E00E94DF
:102F8000192366E184E290E00E9419235DCD8091CF
:102F9000F204089580E00895F89481E08093E000C1
:102FA00080E28093D800E9ECF0E010828FE19EE4AB
:102FB0000197F1F700C000001DBA109268001CBC18
:102FC00010BE1FBA10927A0010926E0010926F001D
:102FD000109270001092710010821092BC0011B813
:102FE00014B817B81AB81DB810BA12B815B818B86E
:102FF0001BB81EB811BA0C9400FE089578941F9265
:103000000F920FB60F9211248F939F93AF93BF939C
:103010008091350490913604A0913704B091380422
:103020000196A11DB11D8093350490933604A093A1
:103030003704B0933804BF91AF919F918F910F9057
:103040000FBE0F901F9018959C014FB7F894809178
:10305000350490913604A0913704B09138044FBFE5
:10306000821B930B08952FB7F894809135049091AB
:103070003604A0913704B09138042FBF08951F92F1
:103080000F920FB60F9211248F939F93AF93BF931C
:1030900080910604811113C080913504909136040B
:1030A000A0913704B09138044196A11DB11D8093C1
:1030B000350490933604A0933704B0933804BF913D
:1030C000AF919F918F910F900FBE0F901F90189509
:1030D0009C01FC0132969FEF80E04191461789F0F8
:1030E0009F3F19F4411101C0982F8F5F8630A9F7D7
:1030F0009F3F39F0F901E90FF11D97FDFA956283C1
:1031000008950895CF9384E090E00E940B23C82F88
:1031100081E290E00E940B232C2F30E0A901582B74
:10312000CA01CF9108956BEE7EEF80E090E00E949F
:10313000372360E082E090E00E94192360E083E0A2
:1031400090E00E9419231092EC041092ED0410926A
:10315000EE041092EF0460E084E090E00E941923F6
:1031600060E081E290E00E94192360E085E090E059
:103170000E94192360E086E090E00E9419236FEF1F
:1031800087E090E00E94192340E050E0BA0188E017
:1031900090E00E942B2360E08DE090E00E941923D4
:1031A00040E050E0BA0188E190E00E942B2360E00B
:1031B00087E190E00E94192340E050E0BA018CE1E1
:1031C00090E00E942B2360E080E290E00E941923AF
:1031D00040E050E0BA0188E190E00E942B2340E0FB
:1031E00050E0BA018FE090E00E942B2340E050E0D5
:1031F000BA0183E190E00C942B238091EB048111C0
:103200001092EB0408959091EA048091E904892BCF
:103210002091E804982F922B909339048091EB042D
:10322000882389F0892B80933904EBE3F4E097E05D
:1032300080E0915029F021912223D9F38F5FF9CFBB
:1032400081110E94FD18E0910404F091050430976B
:1032500031F00280F381E02D89E394E00994089530
:10326000BF92CF92DF92EF92FF920F931F93CF9373
:10327000DF938C01C0905A05D0905B05E0905C050F
:10328000F0905D058091EC049091ED04A091EE0426
:10329000B091EF04C82AD92AEA2AFB2ACFE1D0E06C
:1032A000D701C6010C2E04C0B695A79597958795B2
:1032B0000A94D2F780FD04C0219790F7B12C07C083
:1032C000BC2EB8018C2F0E9410120197A9F38B2DF0
:1032D000DF91CF911F910F91FF90EF90DF90CF90F2
:1032E000BF900895CF93DF93EC010E943019BE0187
:1032F0000E941012DF91CF9108950E947219292F18
:103300002F70E92FE295EF704E2F50E0FA013297BF
:10331000EE30F105B8F4E559FF4F0C944927803F92
:1033200099F018F4883E70F40FC0843F59F40CC033
:10333000883E50F0813F31F407C0822F86958695F4
:103340008695089580E0089581E0089520E1929F98
:10335000800D1124682F669566956695982F977055
:1033600085E0689FB001112440E050E080E0FB015F
:10337000E40FF51FE758FB4F208130E0092E02C013
:10338000369527950A94E2F721703327042E01C061
:10339000220F0A94EAF7822B4F5F5F4F45305105A9
:1033A00031F7089520E1929F800D1124E82FE695D2
:1033B000E695E695877051E001C0550F8A95EAF7CA
:1033C00085E0E89FF0011124E758FB4F20E030E052
:1033D00070E04081CB01022E02C0969587950A9439
:1033E000E2F78170819584278523842781932F5F5D
:1033F0003F4F2530310569F7089560935A05709362
:103400005B0580935C0590935D051092E904109232
:10341000E8040C9403190F931F9341E050E060E01F
:1034200070E004C0440F551F661F771F8A95D2F7BE
:10343000409550956095709580915A0590915B05E7
:10344000A0915C05B0915D058A019B0108231923B9
:103450002A233B23C901B8011F910F910C94FD1938
:103460002091E704809582238093E704982F97703A
:1034700079F430E0482F082E000C550B241735073F
:1034800039F08595859585950E940B1A1092E70471
:1034900008950F931F9341E050E060E070E004C096
:1034A000440F551F661F771F8A95D2F780915A05E2
:1034B00090915B05A0915C05B0915D058A019B012F
:1034C000082B192B2A2B3B2BC901B8011F910F91F7
:1034D0000C94FD196093EC047093ED048093EE045A
:1034E0009093EF041092E9041092E8040C940319ED
:1034F0008091780490914704891719F08F5F877045
:10350000FBCF08950F931F93CF93DF9380914604D1
:1035100082958F7009F05DC080914304882309F47F
:1035200058C08091780410914704609141047091D3
:103530004204C0914404D091450491E06F3F09F0EA
:1035400090E0292F06E0811709F443C0209721F06D
:103550007F3F21F030E003C031E001C0322F90E026
:1035600030FD34C0089FF001099FF00D1124DF01E8
:10357000A85BBB4F11963C911197371327C03C9124
:10358000361324C012963C91129731111FC0139626
:103590004D915C9114974C1B5D0B483C5105B0F468
:1035A000809146048F70806180934604E35BFB4FFB
:1035B00080818F708061808381E494E00E940B039E
:1035C000DF91CF911F910F910C94781A019687701B
:1035D000BACFDF91CF911F910F9108959F92AF9233
:1035E000BF92CF92DF92EF92FF920F931F93CF93F0
:1035F000DF93CDB7DEB761970FB6F894DEBF0FBE8D
:10360000CDBF8C0185E0F801DE011D9601900D9281
:103610008A95E1F7F80190818181E280309141043F
:103620006091420440914404509145044115510574
:1036300031F06F3F31F421E03F3F19F403C021E046
:1036400001C020E0F22FF1709F2E20FD23C1F80170
:10365000C380D48021E4A22E24E0B22EF090430453
:10366000F601E41BF50BFF2009F4CEC020914604BF
:10367000E83CF10508F099C0422F407F09F051C0A5
:10368000681311C039130FC0FE2CE1100CC02F704D
:10369000206120934604C5010E940B0380914604DB
:1036A000F801858337C1CD2831F08F3F31F421E017
:1036B0009F3F19F403C021E001C020E020FD03C0BA
:1036C00021E02E2502C020E030E0F22FF170FF2E25
:1036D00020FF1DC0209178044091470456E0241734
:1036E00009F4F6C030E0529FF001539FF00D112411
:1036F000E85BFB4F6181861306C06081961303C0AF
:103700006281E61204C02F5F3F4F2770E8CFFE2C86
:10371000EE2009F4FFC08091460481608093460446
:1037200050C0681307C0391305C0E11003C0F80189
:1037300025838DC09D878E878D859E850E947D19EE
:10374000882369F1EE2059F120914604822F829559
:103750008F7090E0029774F0809141049091420440
:1037600098878F831986DB86CA862C87CE010796B9
:103770000E940B0386E0F801A1E4B4E001900D92F1
:103780008A95E1F70E94821A0DC06817E1F09D87C3
:103790008E878D859E850E947D1981111EC0C8016E
:1037A0000E940B03FF24F394B5C0422F407F69F7BA
:1037B00081E494E00E940B0386E0F50111928A9562
:1037C000E9F7F12CA7C03913E2CFE110E0CFF801FF
:1037D0002583C8010E940B0357C0EE2001F32091FE
:1037E0004604822F82958F7090E002971CF28091A0
:1037F0004104909142049A8389831B82DD82CC82AA
:103800002E83CE010196B4CFE83CF105E8F5FE2CFD
:10381000EE2029F2681327C0391325C020914604F1
:1038200020FD18C0822F82958F70482F50E04115DF
:10383000510581F0F80125834F30510541F08F5F2C
:10384000982F9295907F822F8F70892B8583C80146
:103850000E940B0386E0F801A1E4B4E001900D9210
:103860008A95E1F757C09D878E878D859E850E943A
:103870007D1981117FCF8091460481608093460439
:10388000C8010E940B0346C086E0F50111928A959B
:10389000E9F740C0EE2009F482CF9D878E878D85A1
:1038A0009E850E947D19F82E882309F478CF86E042
:1038B000F801A1E4B4E001900D928A95E1F78091BE
:1038C0004104909142040E9472190E94821A22C0FF
:1038D0009D878E878D859E850E947219292F22953E
:1038E0002F70223028F49F7039F0811105C00BC071
:1038F000243028F49F7049F4805E883020F0C8019D
:103900000E940B039F2CF92C05C0F8019581907F34
:1039100099F7F9CF8F2D61960FB6F894DEBF0FBEE1
:10392000CDBFDF91CF911F910F91FF90EF90DF906E
:10393000CF90BF90AF909F9008951092EA0486E0D8
:10394000EBE3F4E0DF011D928A95E9F71092E904B8
:103950001092E8040C9403190F931F9380915A0559
:1039600090915B05A0915C05B0915D058C019D0176
:103970000670112722273327BC01CD01063011051F
:103980002105310511F4686001C0677F1F910F9117
:103990000C94FD19CF92DF92EF92FF92E0915905BE
:1039A000EE23D9F0E15088E0E802F0011124E75E4F
:1039B000FA4FC280D380E480F58020E030E0A90196
:1039C000C701B6010E947E2318163CF480911805A9
:1039D000811106C01092170503C0C12CD12C7601AD
:1039E000C701B601FF90EF90DF90CF900895CF927E
:1039F000DF92EF92FF92CF93DF932091160520FD87
:103A000008C0DF91CF91FF90EF90DF90CF900C94A2
:103A1000130D7B01EC0180911505811102C00E94FC
:103A2000730D8091140581110E94130D81E0809324
:103A3000130510921205D0931105C0931005F09252
:103A40000F05E0920E0510920D0510920C051092D4
:103A50000B056C817D818E819F810E94F5239B01E6
:103A6000A0E6BAEE0E946F23C12C2EE1D22EE12CEB
:103A7000F12CA70196010E944D23688179818A81EA
:103A80009B81A9010E94AC0D0E94331890930A05F6
:103A9000809309058091100590911105E0910B0527
:103AA000F0910C0533E0EE0FFF1F3A95E1F7E80FB8
:103AB000F91F64817581868197810E94F5239B019E
:103AC000A0E6BAEE0E946F23A70196010E944D2343
:103AD0003093080520930705DF91CF91FF90EF9079
:103AE000DF90CF9008951F93CF93DF93CDB7DEB7CC
:103AF000AA970FB6F894DEBF0FBECDBFEFEFF4E08C
:103B000087E095E02091F10021938E179F07D1F770
:103B100080910005833009F45EC030F4813071F08B
:103B2000823009F498C0AFC08A3009F484C08B3069
:103B300009F469C0893009F0A6C020C08091FF0453
:103B4000813A09F0A0C08091E800877F8093E80067
:103B50008091030590910405892B21F468E083EF9F
:103B600094E003C060E080E090E070E00E94061402
:103B70008091E8008B778093E80085C08091FF04F6
:103B8000813209F080C08091030590910405892B52
:103B900009F079C08091E800877F8093E8008091E8
:103BA000E80082FD05C08091FD048111F8CF6BC053
:103BB0008091F2009091F300029729F48091F10036
:103BC0008B7F813021F48091F1008093F204809109
:103BD000E8008B7754C08091FF04813A09F053C00C
:103BE0008091030590910405892B09F04CC08091C8
:103BF000E800877F8093E8008091E80080FFFCCF99
:103C000080917E0337C08091FF048132E1F580917D
:103C1000030590910405892BB1F58091E800877F19
:103C20008093E8000E94B2138091010580937E0387
:103C30000E949D1C28C08091FF04813221F5809153
:103C4000E800877F8093E8000E94B213809102050C
:103C50008093F10418C08091FF04813AA1F480910F
:103C6000E800877F8093E8008091E80080FFFCCF28
:103C70008091F1048093F1008091E8008E77809329
:103C8000E8000E94B2138091E80083FFCFC18091C9
:103C9000FF0490910005492F50E04A30510508F08B
:103CA000C5C1FA01E758FF4F0C944927803821F02D
:103CB000823809F0BBC108C08091FB049091FC04DC
:103CC000992389F082600FC0809103058F7087303F
:103CD00008F0ACC18093E9008091EB0085FB882758
:103CE00080F91092E9009091E800977F9093E800A6
:103CF0008093F1001092F10063C1282F2D7F09F00D
:103D000095C1882319F0823061F090C1809101053E
:103D1000813009F08BC1933009F080E08093FC047E
:103D20002EC08091010581112AC0809103058F70FA
:103D30002FEF280F263008F079C18093E9002091F9
:103D4000EB0020FF1CC0933021F48091EB008062D7
:103D500014C09091EB0090619093EB0021E030E073
:103D6000A90102C0440F551F8A95E2F74093EA006B
:103D70001092EA008091EB0088608093EB00109233
:103D8000E9008091E800877F1EC181114FC1109129
:103D900001051F778091E3008078812B8093E300F9
:103DA0008091E800877F8093E8000E94B2138091A1
:103DB000E80080FFFCCF8091E30080688093E300FF
:103DC000111102C082E001C083E08093FD042EC186
:103DD0008058823008F02AC1809101059091020537
:103DE0008C3D53E0950779F583E08A838AE28983E5
:103DF0004FB7F894DE01139620E03EE051E2E32F46
:103E0000F0E050935700E49120FF03C0E295EF707B
:103E10003F5FEF708E2F90E0EA3010F0C79601C040
:103E2000C0968D939D932F5F243149F74FBF8091AA
:103E3000E800877F8093E8006AE270E0CE01019697
:103E40000E940614ABC04091030550910405292F30
:103E5000332723303105A9F068F42130310509F406
:103E6000F4C02230310509F0E1C082E490E0EAE5D7
:103E7000F5E044C02132310521F12232310571F1E2
:103E8000D5C0992781309105A1F058F0029709F02B
:103E9000CDC0EEEAF5E0E4918E2F90E0EEEAF5E099
:103EA0002AC0E0EDF5E0E4918E2F90E0E0EDF5E042
:103EB00022C0E2ECF5E0E4918E2F90E0E2ECF5E038
:103EC0001AC04115510509F4C5C04130510509F02A
:103ED000ADC089E090E0E5E8F5E010C0411551057E
:103EE00009F4BDC04130510509F0A0C082E290E064
:103EF000E8EFF4E003C0009709F498C02091E800CF
:103F0000277F2093E8002091050530910605821750
:103F1000930708F49C0140E02115310571F180916F
:103F2000FD048823D9F18530C9F18091E80083FD33
:103F300035C08091E80082FD2DC08091E80080FFAF
:103F4000EBCF8091F2009091F3002115310559F0EB
:103F50008830910540F444914093F100319621500E
:103F600031090196F2CF41E0089709F040E08091D5
:103F7000E8008E778093E800CFCF4111D0CF0AC000
:103F80008091FD04882351F0853041F08091E80054
:103F900083FD04C08091E80082FFF2CF8091E800A9
:103FA0008B778093E80042C0803809F03FC0809151
:103FB000E800877F8093E8008091FE048093F10001
:103FC0008091E8008E778093E8000E94B2132EC0A3
:103FD00081112CC0809101059091020599270297CB
:103FE0002CF58091E800877F8093E800109101050F
:103FF0001093FE040E94B213111106C08091E300D9
:1040000087FD02C081E001C084E08093FD0442E0AE
:1040100061EC81E00E94D11342E261EC82E00E94F7
:10402000D11342E260EC83E00E94D1138091E8005A
:1040300083FF1AC08091E800877F8093E800809119
:10404000EB0080628093EB000FC082E190E0ECE92E
:10405000F5E054CF89E090E0ECE6F5E04FCF80E466
:1040600090E0EAE1F5E04ACFAA960FB6F894DEBFF9
:104070000FBECDBFDF91CF911F9108951F920F9278
:104080000FB60F9211240BB60F922F933F934F93BD
:104090005F936F937F938F939F93AF93BF93CF93D0
:1040A000DF93EF93FF93C091E900CF708091EC0014
:1040B000D82FD17080FDD0E81092E9008091F000F7
:1040C000877F8093F00078940E94731D1092E9001E
:1040D0008091F00088608093F000CD2BCF70C0936A
:1040E000E900FF91EF91DF91CF91BF91AF919F9147
:1040F0008F917F916F915F914F913F912F910F9091
:104100000BBE0F900FBE0F901F901895E8EDF0E0DA
:1041100080818C7F80831092E2001092DA001092EE
:10412000E100A0EEB0E08C9181608C9380818F776C
:10413000808319BCA7EDB0E08C918E7F8C93808139
:104140008F7E80831092F0040895CF92DF92EF92D9
:10415000FF920F931F93CF93DF93C8EDD0E0888138
:104160008F7E8883E7EDF0E080818160808381E04D
:104170008093F00488818C7F888302EE10E0D80160
:104180001C921092DA0081EEC82ED12CD6011C921E
:1041900088818F77888388818068888388818F7DF4
:1041A000888380818068808319BC1092FD041092FE
:1041B000FE041092FC041092FB0490EEE92EF12C08
:1041C000F70180818B7F808388818160888342E0D2
:1041D00060E080E00E94D113D6018C918E7F8C9399
:1041E000F801808181608083808188608083D7012D
:1041F0008C918E7F8C93888180618883DF91CF91B1
:104200001F910F91FF90EF90DF90CF9008951F9234
:104210000F920FB60F9211240BB60F922F933F936C
:104220004F935F936F937F938F939F93AF93BF93BE
:10423000EF93FF938091E10082FF09C08091E2003B
:1042400082FF05C08091E1008B7F8093E100809127
:10425000DA0080FF2AC08091D80080FF26C08091BC
:10426000DA008E7F8093DA008091D90080FF18C039
:1042700084E189BD86E189BD09B400FEFDCF81E0FE
:104280008093FD048091F00481110FC00E9486206C
:104290000E94A5208091E20084608093E20005C026
:1042A00019BC1092FD041092F0048091E10080FF8F
:1042B00017C08091E20080FF13C08091E2008E7FE2
:1042C0008093E2008091E20080618093E20080911F
:1042D000D80080628093D80019BC85E08093FD04EB
:1042E0008091E10084FF2EC08091E20084FF2AC00B
:1042F00084E189BD86E189BD09B400FEFDCF8091CE
:10430000D8008F7D8093D8008091E1008F7E8093CC
:10431000E1008091E2008F7E8093E2008091E200D4
:1043200081608093E2008091FE04882311F084E094
:1043300007C08091E30087FD02C081E001C083E0F7
:104340008093FD048091E10083FF27C08091E2000B
:1043500083FF23C08091E100877F8093E10082E0AA
:104360008093FD041092FE048091E1008E7F809383
:10437000E1008091E2008E7F8093E2008091E20074
:1043800080618093E20042E060E080E00E94D1130F
:104390008091F00088608093F000FF91EF91BF91D1
:1043A000AF919F918F917F916F915F914F913F91CD
:1043B0002F910F900BBE0F900FBE0F901F9018956E
:1043C0002091E4003091E50095E64091EC00842FC7
:1043D000817040FF23C08091E80080FD1DC0809166
:1043E000FD04882399F0853099F08091EB0085FDDC
:1043F00011C04091E4005091E5002417350729F3DE
:10440000915011F09A01E1CF84E0089582E008957F
:1044100083E0089581E0089580E008954091E800E8
:1044200042FFDDCF0895EF92FF920F931F93CF933A
:10443000DF937C018B010E94E021811119C0E7010B
:1044400001151105A1F08091E80085FD0AC0809159
:10445000E8008E778093E8000E94E021882381F3B2
:1044600007C089918093F10001501109E9CF80E0E4
:10447000DF91CF911F910F91FF90EF9008958823C6
:1044800041F080959091EA0489238093EA040C948A
:1044900003190895882339F09091EA04892B8093B9
:1044A000EA040C9403190895882309F457C09CEF7B
:1044B000980F913A60F4E9E3F4E09281891301C026
:1044C0001282319644E0EF33F407B9F714C090E25A
:1044D000980F983090F4877021E030E0A90102C075
:1044E000440F551F8A95E2F7CA0180959091EA041E
:1044F00089238093EA040C9403199BE5980F933069
:10450000A0F480915E0590915F05892B39F110929E
:104510005F0510925E05E0910404F0910504309768
:10452000E9F00680F781E02D16C0885A8731B0F493
:104530008091600590916105892B81F01092610551
:1045400010926005E0910404F0910504309731F079
:104550000084F185E02D80E090E009940895CF93E8
:104560008823C9F19CEF980F913AF8F4C82FEBE338
:10457000F4E08191C81729F044E0E134F407C9F769
:104580000EC0E9E3F4E08FE394E02281C21301C09E
:10459000128231968E179F07C1F70E9403196C2F64
:1045A00089E394E00E94681813C090E2980F983055
:1045B00090F4877021E030E0A90102C0440F551F3C
:1045C0008A95E2F7CA019091EA04892B8093EA0464
:1045D000CF910C940319CF9108951F93CF93DF933C
:1045E000182F893319F0C0E0D0E002C0C0E5D0E058
:1045F000812F0E94AF22209741F08FE99FE0019721
:10460000F1F700C000002197F6CF812FDF91CF9105
:104610001F910C945422F999FECF92BD81BDF89A56
:10462000992780B50895A8E1B0E042E050E00C94ED
:104630003F23262FF999FECF92BD81BDF89A0197AD
:1046400000B4021639F01FBA20BD0FB6F894FA9ADA
:10465000F99A0FBE08950396272F0E941A230E94ED
:104660001923252F0E941A23242F0C941A23019614
:10467000272F0E941A230C941923DC01CB01FC0183
:10468000F999FECF06C0F2BDE1BDF89A319600B4AB
:104690000D9241505040B8F70895A1E21A2EAA1B7E
:1046A000BB1BFD010DC0AA1FBB1FEE1FFF1FA217E2
:1046B000B307E407F50720F0A21BB30BE40BF50BDF
:1046C000661F771F881F991F1A9469F76095709568
:1046D000809590959B01AC01BD01CF010895A29FEB
:1046E000B001B39FC001A39F700D811D1124911DC6
:1046F000B29F700D811D1124911D08950E946124A7
:1047000008F481E008950E9497230C949C240E9451
:10471000952458F00E948E2440F029F45F3F29F040
:104720000C94852451110C94D0240C948B240E9459
:10473000AD2468F39923B1F3552391F3951B550BE1
:10474000BB27AA2762177307840738F09F5F5F4F64
:10475000220F331F441FAA1FA9F335D00E2E3AF0A3
:10476000E0E832D091505040E695001CCAF72BD0BB
:10477000FE2F29D0660F771F881FBB1F261737070C
:104780004807AB07B0E809F0BB0B802DBF01FF273E
:1047900093585F4F3AF09E3F510578F00C94852472
:1047A0000C94D0245F3FE4F3983ED4F3869577953C
:1047B0006795B795F7959F5FC9F7880F911D9695F7
:1047C000879597F90895E1E0660F771F881FBB1F53
:1047D000621773078407BA0720F0621B730B840B00
:1047E000BA0BEE1F88F7E09508950E94B52488F073
:1047F0009F5798F0B92F9927B751B0F0E1F0660FA5
:10480000771F881F991F1AF0BA95C9F714C0B130E5
:1048100091F00E94CF24B1E008950C94CF24672F2B
:10482000782F8827B85F39F0B93FCCF38695779514
:104830006795B395D9F73EF49095809570956195FD
:104840007F4F8F4F9F4F0895E89409C097FB3EF428
:1048500090958095709561957F4F8F4F9F4F9923CD
:10486000A9F0F92F96E9BB279395F695879577954B
:104870006795B795F111F8CFFAF4BB0F11F460FF0B
:104880001BC06F5F7F4F8F4F9F4F16C0882311F063
:1048900096E911C0772321F09EE8872F762F05C077
:1048A000662371F096E8862F70E060E02AF09A9512
:1048B000660F771F881FDAF7880F9695879597F907
:1048C0000895990F0008550FAA0BE0E8FEEF1616A1
:1048D0001706E807F907C0F012161306E407F507F4
:1048E00098F0621B730B840B950B39F40A2661F068
:1048F000232B242B252B21F408950A2609F4A1400B
:10490000A6958FEF811D811D089597F99F6780E817
:1049100070E060E008959FEF80EC089500240A9411
:104920001616170618060906089500240A9412168A
:104930001306140605060895092E0394000C11F4BD
:10494000882352F0BB0F40F4BF2B11F460FF04C06A
:104950006F5F7F4F8F4F9F4F089557FD9058440FC3
:10496000551F59F05F3F71F04795880F97FB991FCE
:1049700061F09F3F79F0879508951216130614068B
:10498000551FF2CF4695F1DF08C016161706180618
:10499000991FF1CF86957105610508940895E894F3
:1049A000BB2766277727CB0197F908950E94E92452
:1049B0000C949C240E948E2438F00E94952420F0B0
:1049C000952311F00C9485240C948B2411240C94C1
:1049D000D0240E94AD2470F3959FC1F3950F50E051
:1049E000551F629FF001729FBB27F00DB11D639FA1
:1049F000AA27F00DB11DAA1F649F6627B00DA11D47
:104A0000661F829F2227B00DA11D621F739FB00DEC
:104A1000A11D621F839FA00D611D221F749F33275C
:104A2000A00D611D231F849F600D211D822F762FF5
:104A30006A2F11249F5750409AF0F1F088234AF0D2
:104A4000EE0FFF1FBB1F661F771F881F915050403E
:104A5000A9F79E3F510580F00C9485240C94D02436
:104A60005F3FE4F3983ED4F3869577956795B795C5
:104A7000F795E7959F5FC1F7FE2B880F911D9695DF
:104A8000879597F90895FA01EE0FFF1F30962105DB
:104A90003105A1F16115710561F48038BFE39B0711
:104AA00049F168949038810561F08038BFEF9B0729
:104AB00041F099234AF5FF3FE1053105210519F140
:104AC000E8940894E795D901AA2329F4AB2FBE2FC7
:104AD000F85FD0F310C0FF5F70F4A695E0F7F739E8
:104AE00050F019F0FF3A38F49F779F930DD00F9054
:104AF00007FC9058089546F00C948B2460E070E019
:104B000080E89FE308954FE79F775F934F933F932C
:104B10002F930E943E262F913F914F915F910E94CB
:104B2000D6240C949B2529F416F00C9485240C941F
:104B3000CF240C948B240E94B524A8F39638A0F7B8
:104B400007F80F92E8942BE33AEA48EB5FE70E94FC
:104B5000EC240F920F920F924DB75EB70F920E9406
:104B60008626E6E0F1E00E94CD254F915F91EF911E
:104B7000FF91E595EE1FFF1F49F0FE57E0684427BF
:104B8000EE0F441FFA95E1F74195550B0E94002660
:104B90000F9007FE0C94F4250895DF93CF931F9395
:104BA0000F93FF92EF92DF927B018C01689406C015
:104BB000DA2EEF010E94E924FE01E894A5912591E7
:104BC000359145915591A6F3EF010E94D226FE0141
:104BD0009701A801DA9469F7DF90EF90FF900F91A9
:104BE0001F91CF91DF9108959B01AC0160E070E0CF
:104BF00080E89FE30C9483230C9485240C9427274E
:104C00000E94B524D8F39923C9F3940F511DA3F33F
:104C10009150504094F059F0882332F0660F771F7E
:104C2000881F91505040C1F79E3F51052CF7880FC7
:104C3000911D9695879597F908955F3FACF0983E42
:104C40009CF0BB27869577956795B79508F4B1607A
:104C50009395C1F7BB0F58F711F460FFE8CF6F5F72
:104C60007F4F8F4F9F4FE3CF0C94D02416F00C94BE
:104C700027270C948B2468940C9485240E94B524D7
:104C8000A8F39923C1F3AEF3DF93CF931F930F9350
:104C9000FF92C92FDD2788232AF02197660F771FFF
:104CA000881FDAF720E030E040E85FEB9FE38839C7
:104CB00020F0803E38F021968F770E94BB26EEE2EE
:104CC000F1E004C00E94BB26EBE5F1E00E94CD2597
:104CD0008B01BE01EC01FB2E6F5771097595771F93
:104CE000880B990B0E94262428E132E741E35FE319
:104CF0000E94E924AF2D9801AE01FF900F911F9102
:104D0000CF91DF910E94D2260C949C24FA01DC0101
:104D1000AA0FBB1F9B01AC01BF5728F422273327E2
:104D20004427507820C0B75190F4AB2F002446950B
:104D300037952795011CA395D2F3002071F0220F1F
:104D4000331F441FB395DAF30ED00C94BA266130AA
:104D50007105A0E88A07B94630F49B01AC016627CB
:104D6000772788279078309621F0208331834283FB
:104D7000538308955058BB27AA270E94D2260C942B
:104D80009C240E948E2438F00E94952420F039F44F
:104D90009F3F19F426F40C948B240EF4E095E7FB66
:104DA0000C948524E92F0E94AD2458F3BA176207AA
:104DB00073078407950720F079F4A6F50C94CF24A7
:104DC0000EF4E0950B2EBA2FA02D0B01B901900126
:104DD0000C01CA01A0011124FF27591B99F0593F6A
:104DE00050F4503E68F11A16F040A22F232F342FB2
:104DF0004427585FF3CF469537952795A795F04000
:104E00005395C9F77EF41F16BA0B620B730B840B14
:104E1000BAF09150A1F0FF0FBB1F661F771F881FCC
:104E2000C2F70EC0BA0F621F731F841F48F4879524
:104E300077956795B795F7959E3F08F0B0CF939516
:104E4000880F08F09927EE0F9795879508959F3F53
:104E500031F0915020F4879577956795B795880F35
:104E6000911D9695879597F9089597FB072E16F44F
:104E7000009407D077FD09D00E94592707FC05D080
:104E80003EF4909581959F4F0895709561957F4F61
:104E90000895EE0FFF1F0024001C0BBE0790F69133
:104EA000E02D09946927962769277827872778278F
:104EB0000895AA1BBB1B51E107C0AA1FBB1FA61761
:104EC000B70710F0A61BB70B881F991F5A95A9F7B3
:0E4ED00080959095BC01CD010895F894FFCF18
:104EDE0000005C44000080415C978A4400008041E1
:104EEE0052D0A444000080410000DC440000804108
:104EFE000000DC44000000410AA7CF44000000413E
:104F0E005CFFB8440000004152D0A44400000041B0
:104F1E001FD59244000000415C978A440000004176
:104F2E0048F176440000004100005C44000000415E
:104F3E0000005C44000080411F1569440000804160
:104F4E0048F176440000804100D082440000804148
:104F5E005C978A4400008041A4D024440000804124
:104F6E0000005C44000080411FD592440000804147
:104F7E005CFFC34400008041000000000000000000
:104F8E005CFF4344000080411FD5924400008041E5
:104F9E000000DC440000804152D0244500008041D6
:104FAE00000000000000000000005C440000804192
:104FBE0048F17644000080415C978A4400008041AD
:104FCE001FD592440000804152D0A444000080417D
:104FDE0003640000005C440000004100005C4400DB
:104FEE0000004100005C440000004100005C4400F1
:104FFE0000004148F176440000C04000005C4400CF
:10500E0000C04048F176440000C04000005C4400FF
:10501E0000C04048F176440000C04000005C4400EF
:10502E0000C04048F176440000C04000005C4400DF
:10503E0000C04052D02445000000410000DC440076
:10504E0000004152D0A4440000404152D0A444007C
:10505E000000410000DC440000004152D024450015
:10506E0000404100005C44000000410000DC4400B0
:10507E000000410000DC440000004100005C4400E0
:10508E000000410100005C440000004148F17644FC
:10509E00000000415C978A44000000411FD59244F5
:1050AE000000004152D0A444000000415CFFB8440F
:1050BE00000000410AA7CF44000000410000DC447C
:1050CE00000000410000DC44000000410AA7CF446C
:1050DE00000000415CFFB8440000004152D0A444DF
:1050EE00000000411FD59244000000415C978A44A5
:1050FE000000004148F176440000004100005C448D
:10510E000000004100005C440000004148F176447C
:10511E00000000415C978A44000000411FD5924474
:10512E000000004152D0A444000000415CFFB8448E
:10513E00000000410AA7CF44000000410000DC44FB
:10514E0000000041C71786138513831384130100D3
:10515E0002040507090B0C0E1011131517181A1C53
:10516E001D1F2123242628292B2D2F30323435378D
:10517E00393BC6C730313233343567F0F237909150
:0E518E0092F6F797C0C16063646566F1F300A6
:00000001FF
